:100000000C94B3000C94D2000C94D2000C94D20047
:100010000C94D2000C94D2000C94D2000C94D20018
:100020000C94D2000C94D2000C94D2000C94D20008
:100030000C94D2000C94D2000C94D2000C94D200F8
:100040000C94D2000C94D2000C94D2000C94D200E8
:100050000C947C690C94CF690C94D2000C94D2005F
:100060000C94D2000C94D2000C94D2000C94D200C8
:100070000C94F26A0C94456B0C94D2000C94D20050
:100080000C94D2000C94D2000C94D2000763423638
:10009000B79BD8A71A39685618AEBAAB558C1D3C19
:1000A000B7CC5763BD6DEDFD753EF6177231BF00DD
:1000B0000000803F08000000BE922449123EABAA17
:1000C000AA2ABECDCCCC4C3E00000080BEABAAAA72
:1000D000AA3E00000000BF000000803F00000000BA
:1000E00000084178D3BB4387D1133D190E3CC3BDF3
:1000F0004282AD2B3E68EC8276BED98FE1A93E4CA0
:1001000080EFFFBE01C4FF7F3F000000000053747A
:1001100072696E672073746F72656420696E204621
:100120004C4153480A00427566666572206F7665D9
:1001300072666C6F77206572726F723A200055415B
:100140005254204F76657272756E204572726F72CE
:100150003A200055415254204672616D6520457227
:10016000726F723A200011241FBECFEFD0E4DEBFC1
:10017000CDBF12E0A0E0B1E0EAE8F5EE00E00BBF91
:1001800002C007900D92A03CB107D9F714E0A0EC93
:10019000B2E001C01D92A030B107E1F70E948F01CB
:1001A0000C946E6E0C940000DF93CF93CDB7DEB746
:1001B000ECE7F0E080E48083EAE7F0E086E8808323
:1001C000CF91DF910895DF93CF930F92CDB7DEB734
:1001D0008983898187708983ACE7B0E0ECE7F0E040
:1001E0008081982F987F8981892B8C93AAE7B0E032
:1001F000EAE7F0E0808180648C93EAE7F0E08081B8
:10020000882F90E0807190700097B9F3AAE7B0E072
:10021000EAE7F0E0808180618C93E8E7F0E080819C
:1002200091810F90CF91DF910895DF93CF93CDB758
:10023000DEB7CF91DF910895DF93CF93CDB7DEB7CF
:100240002B970FB6F894DEBF0FBECDBF86E890E0C7
:100250009A83898389E190E00E94186A789480E00B
:1002600091E00E94AB6A8EE091E00E94C96A8981A8
:100270009A819E012B5F3F4FB9014AE050E00E94F6
:100280009A6ECE0105960E94AB6A8DE00E94816A4B
:100290002B960FB6F894DEBF0FBECDBFCF91DF9186
:1002A0000895DF93CF93CDB7DEB729970FB6F894B3
:1002B000DEBF0FBECDBF0E944D6A9A8389838981BC
:1002C0009A8180709170009709F589819A81807078
:1002D0009071009721F083E591E00E94C96A8981BD
:1002E0009A8180709870009721F08EE391E00E94CF
:1002F000C96A89819A8180709270009721F086E2A4
:1003000091E00E94C96A89810E94816A29960FB68C
:10031000F894DEBF0FBECDBFCF91DF910895CF928D
:10032000DF92EF92FF920F931F93DF93CF93CDB79E
:10033000DEB7C454D0400FB6F894DEBF0FBECDBFB9
:10034000EAE2F0E08FEF8083EBE2F0E010820E94BF
:10035000D4000E941C01CE014F969FAF8EAFE7E103
:10036000F1E02296FFAFEEAF2297FAE02396FFAFBF
:1003700023972296EEADFFAD2297008022968EAD98
:100380009FAD2297019622969FAF8EAF2297EEAD3A
:10039000FFAD00828EAD9FAD01969FAF8EAF2396CD
:1003A0009FAD2397915023969FAF23972396EFAD50
:1003B0002397EE23F1F680E090E0A0E0B0E0809398
:1003C000CE039093CF03A093D003B093D10380E0EA
:1003D00090E0A0E0B0E08093D2039093D303A09389
:1003E000D403B093D50380E090E0A0EAB0E480931A
:1003F000CA039093CB03A093CC03B093CD0380E0CA
:1004000090E0A0E0B0E08093D6039093D703A09350
:10041000D803B093D90380E090E0A0E0B0E08093EF
:10042000DE039093DF03A093E003B093E10380E049
:1004300090E0A0E8BFE38093E2039093E303A093EE
:10044000E403B093E50380E090E0A0E8B0E480939B
:10045000E6039093E703A093E803B093E90381E2F6
:1004600091E02DE231E0E4E5F1E0DE015F9661E04C
:1004700070E0A9019F018D01EE24FF24E394CC24B8
:10048000DD24C3940E947B0B9E8F8D8F8D8D9E8D5E
:10049000009791F481E090E0CC5BDF4F0FB6F894C9
:1004A000DEBF0FBECDBFCF91DF911F910F91FF90A7
:1004B000EF90DF90CF90089580E090E0A0E0B0E072
:1004C000898F9A8FAB8FBC8F8AE097EDA3E2BCE354
:1004D0008D8B9E8BAF8BB88F188A1F8680E00E9411
:1004E000E300CC01A0E0B0E0BC01CD010E94BD6FF3
:1004F000DC01CB018093CE039093CF03A093D00374
:10050000B093D10381E00E94E300CC01A0E0B0E011
:10051000BC01CD010E94BD6FDC01CB018093D203F1
:100520009093D303A093D403B093D503298D3A8D30
:100530004B8D5C8DED88FE880F89188D80E090E0F2
:10054000BA01A90198018701EE24FF240E940E1030
:10055000698D7A8D8B8D9C8D2D893E894F89588D23
:100560000E94BC6EDC01CB01898F9A8FAB8FBC8F50
:100570008091D6039091D703A091D803B091D9036D
:100580001C8A1B8ABC01CD0120E030E040E850E429
:100590000E94C270882324F081E090E09C8B8B8BBA
:1005A0008091DE039091DF03A091E003B091E1031D
:1005B0001DAEBC01CD0120E030E040E850EC0E94CF
:1005C000206F181614F0F1E0FDAF81E09DAD892792
:1005D000882F90E09A8B898B8B899C89009779F082
:1005E000ABE2B0E0EBE2F0E08081877F8C93ABE29E
:1005F000B0E0EBE2F0E080818F7E8C930EC0ABE246
:10060000B0E0EBE2F0E0808188608C93ABE2B0E098
:10061000EBE2F0E0808180618C9389899A89009770
:1006200079F0ABE2B0E0EBE2F0E080818B7F8C937D
:10063000ABE2B0E0EBE2F0E080818F7D8C930EC006
:10064000ABE2B0E0EBE2F0E0808184608C93ABE25F
:10065000B0E0EBE2F0E0808180628C938F85988936
:10066000009741F0ABE2B0E0EBE2F0E08081806423
:100670008C9307C0ABE2B0E0EBE2F0E080818F7BCF
:100680008C9325961FAE1EAE25978F85988900976F
:1006900031F4E1E0F0E02596FFAFEEAF2597259627
:1006A0008EAD9FAD2597988B8F8780E090E0A8E472
:1006B000B3E48B879C87AD87BE876B857C858D85F2
:1006C0009E8520E030E04AEF54E40E94C670DC01D1
:1006D000CB018F839887A987BA876F8178858985B1
:1006E0009A8520E030E040E85FE30E94206F882395
:1006F0002CF481E090E09E838D833FC06F817885EC
:1007000089859A8520E03FEF4FE757E40E94C27049
:1007100018164CF56B857C858D859E8520E030E034
:1007200040E251E40E94C670DC01CB01BC01CD0166
:100730000E94916FDC01CB019E838D830FC088ECFA
:1007400090E09C838B838B819C810197F1F79C8344
:100750008B838D819E8101979E838D838D819E8168
:10076000009769F7BBCE6F81788589859A850E944D
:10077000916FDC01CB019E838D838D819E819A8355
:10078000898389819A810197F1F79A838983A6CE1B
:10079000DF93CF9300D0CDB7DEB79A838983E98109
:1007A000FA81868597850E94882C0F900F90CF91B3
:1007B000DF910895DF93CF9300D0CDB7DEB79A8352
:1007C0008983E981FA81848595850197E981FA8198
:1007D00095878487E981FA8184859585009741F41E
:1007E00089819A810E94C80389819A810E94356D0E
:1007F0000F900F90CF91DF910895DF93CF9300D0AA
:1008000000D0CDB7DEB79C838B8380E00E94F824B4
:100810009A83898389819A810F900F900F900F900E
:10082000CF91DF9108950F931F93DF93CF9300D063
:1008300000D000D0CDB7DEB79C838B837E836D83E1
:100840008D819E8160E070E00E94F44B9A838983E1
:100850008B819C81FC013E96808191810E94882C35
:100860008B819C818C01025F1F4F89819A810E943C
:10087000CB28F8019183808389819A810E94882CFA
:1008800026960FB6F894DEBF0FBECDBFCF91DF9195
:100890001F910F910895DF93CF9300D000D0CDB773
:1008A000DEB79C838B838B819C81FC013E9680818B
:1008B000918160E070E00E94F44B60E070E00E9483
:1008C000F44B9A83898389819A810F900F900F90BE
:1008D0000F90CF91DF910895DF93CF93CDB7DEB71F
:1008E000CF91DF910895DF93CF93CDB7DEB7CF914E
:1008F000DF910895DF93CF93CDB7DEB7CF91DF912E
:100900000895DF93CF93CDB7DEB7CF91DF910895F0
:10091000DF93CF9300D000D0CDB7DEB79C838B831D
:100920008B819C819A83898389819A810E944B045F
:100930000F900F900F900F90CF91DF910895DF935C
:10094000CF9300D0CDB7DEB79A83898389819A810E
:10095000009731F482E190E00E94886C9A83898349
:1009600089819A810097C9F189819A810E94921A9E
:100970008091C4029091C502009789F4E981FA81BF
:100980002081318180EC92E0B90142E150E00E9487
:10099000716E88E894E09093CB028093CA02E9815B
:1009A000FA8180EC92E091838083E981FA8183E08F
:1009B00090E093878287E981FA8115861486E98120
:1009C000FA8185E591E09187808789819A810E94EB
:1009D000FD03E981FA819787868789819A810F9043
:1009E0000F90CF91DF910895DF93CF9300D000D087
:1009F00000D0CDB7DEB780E090E00E949F049A83DC
:100A00008983E981FA816285738589819A819C0154
:100A1000245F3F4F4AED53E0E981FA81CB01B901F0
:100A20009F010E94C9471B821C821D821E829C83DB
:100A30008B832B813C814D815E818BE090E0BA01FC
:100A4000A9010E94992426960FB6F894DEBF0FBE26
:100A5000CDBFCF91DF910895DF93CF9300D000D029
:100A600000D0CDB7DEB79C838B837E836D831A82E3
:100A700019828B819C81009769F40E94F4049A8307
:100A80008983E981FA8184819581FC01808191814A
:100A90009C838B838B819C81FC0138968081918122
:100AA000FC01369684819581FC018B819C812D818E
:100AB0003E81B901099589819A8126960FB6F894ED
:100AC000DEBF0FBECDBFCF91DF910895DF93CF93EF
:100AD00000D000D0CDB7DEB79C838B831A821982F9
:100AE0008B819C81009769F40E94F4049A83898326
:100AF000E981FA8184819581FC01808191819C83C7
:100B00008B8389819A810F900F900F900F90CF91D6
:100B1000DF910895DF93CF9300D0CDB7DEB79A83EE
:100B20008983E981FA81868197810E94882CE981F5
:100B3000FA81808591850E94882CE981FA818285DD
:100B400093850E94882CE981FA81848595850E948D
:100B5000882C0F900F90CF91DF910895DF93CF9362
:100B600000D0CDB7DEB79A838983E981FA81848189
:100B700095810197E981FA8195838483E981FA81DE
:100B800084819581009741F489819A810E948A0528
:100B900089819A810E94356D0F900F90CF91DF91DE
:100BA0000895DF93CF9300D0CDB7DEB784E090E017
:100BB0000E94D4249A83898389819A810F900F900F
:100BC000CF91DF9108950F931F93DF93CF93CDB70C
:100BD000DEB766970FB6F894DEBF0FBECDBF9E8B13
:100BE0008D8B80E060E070E00E94DD4A9C8B8B8BF7
:100BF0008D899E89FC013A968081918160E070E048
:100C00000E94F44BFC0184819581FC0180819181DB
:100C1000FC0180819181FC013696848195818C0153
:100C20008D899E89FC013A968081918160E070E017
:100C30000E94F44BFC0184819581FC0180819181AB
:100C4000F80109958C0180E991E060E070E00E9474
:100C5000B14A9C01C801B90140E050E00E94304611
:100C60000E945F33882309F443C08D899E89FC016B
:100C70003C968081918160E070E00E94F44BFC0121
:100C800084819581FC0180819181FC018081918129
:100C9000FC013696848195818C018D899E89FC01A9
:100CA0003C968081918160E070E00E94F44BFC01F1
:100CB00084819581FC0180819181F80109958C01E5
:100CC00080E991E060E070E00E94B14A9C01C801B7
:100CD000B90140E050E00E9430460E945F33882313
:100CE00039F081E060E070E00E94DD4A9C8B8B8BE4
:100CF0008B899C890E945F33882309F49CC0E09112
:100D0000DE02F091DF0284819581FC018081918176
:100D1000FC01389680819181FC013C96848195810B
:100D20009C01E091DE02F091DF0284819581FC015B
:100D300080819181F901099560E070E00E94DC33C7
:100D40009C878B878D899E89FC0138968081918153
:100D500060E070E00E94F44BFC0184819581FC010D
:100D600080819181FC0180819181FC013696848192
:100D700095818C018D899E89FC01389680819181B5
:100D800060E070E00E94F44BFC0184819581FC01DD
:100D9000808191812B853C85B901F8010995E0910D
:100DA000DE02F091DF0284819581FC0180819181D6
:100DB000FC01389680819181FC013C96848195816B
:100DC0009C01E091DE02F091DF0284819581FC01BB
:100DD00080819181F90109959A8789878D899E89FA
:100DE000FC0136968081918160E070E00E94F44BB6
:100DF000FC0184819581FC0180819181FC018081CD
:100E00009181FC013696848195818C018D899E8922
:100E1000FC0136968081918160E070E00E94F44B85
:100E2000FC0184819581FC018081918129853A852D
:100E3000B901F801099580E060E070E00E94DD4AA8
:100E40009A8B898B8D899E89FC013A96808191814C
:100E500060E070E00E94F44BFC0184819581FC010C
:100E600080819181FC0180819181FC013696848191
:100E700095818C018D899E89FC013A9680819181B2
:100E800060E070E00E94F44BFC0184819581FC01DC
:100E900080819181F80109958C0180E991E060E001
:100EA00070E00E94B14A9C01C801B90140E050E0E5
:100EB0000E9430460E945F33882309F443C08D8925
:100EC0009E89FC013C968081918160E070E00E94E7
:100ED000F44BFC0184819581FC0180819181FC01AE
:100EE00080819181FC013696848195818C018D8968
:100EF0009E89FC013C968081918160E070E00E94B7
:100F0000F44BFC0184819581FC0180819181F80181
:100F100009958C0180E991E060E070E00E94B14A9F
:100F20009C01C801B90140E050E00E9412440E94B7
:100F30005F33882339F081E060E070E00E94DD4A91
:100F40009A8B898B89899A890E945F33882309F457
:100F50009CC0E091E002F091E10284819581FC0166
:100F600080819181FC01389680819181FC013C96C1
:100F7000848195819C01E091E002F091E1028481FD
:100F80009581FC0180819181F901099560E070E013
:100F90000E94DC3398878F838D899E89FC01389667
:100FA0008081918160E070E00E94F44BFC018481BB
:100FB0009581FC0180819181FC0180819181FC01FE
:100FC0003696848195818C018D899E89FC013896A5
:100FD0008081918160E070E00E94F44BFC0184818B
:100FE0009581FC01808191812F813885B901F801BB
:100FF0000995E091E202F091E30284819581FC0180
:1010000080819181FC01389680819181FC013C9620
:10101000848195819C01E091E202F091E302848158
:101020009581FC0180819181F90109959E838D83D1
:101030008D899E89FC0136968081918160E070E007
:101040000E94F44BFC0184819581FC018081918197
:10105000FC0180819181FC013696848195818C010F
:101060008D899E89FC0136968081918160E070E0D7
:101070000E94F44BFC0184819581FC018081918167
:101080002D813E81B901F801099580E060E070E0B2
:101090000E94DD4A988B8F878D899E89FC013A9644
:1010A0008081918160E070E00E94F44BFC018481BA
:1010B0009581FC0180819181FC0180819181FC01FD
:1010C0003696848195818C018D899E89FC013A96A2
:1010D0008081918160E070E00E94F44BFC0184818A
:1010E0009581FC0180819181F80109958C0180E94D
:1010F00091E060E070E00E94B14A9C01C801B90132
:1011000040E050E00E9412440E945F33882309F4BB
:1011100043C08D899E89FC013C968081918160E06D
:1011200070E00E94F44BFC0184819581FC01808178
:101130009181FC0180819181FC01369684819581A9
:101140008C018D899E89FC013C968081918160E0B3
:1011500070E00E94F44BFC0184819581FC01808148
:101160009181F80109958C0180E991E060E070E0DF
:101170000E94B14A9C01C801B90140E050E00E94C0
:1011800030460E945F33882339F081E060E070E0F0
:101190000E94DD4A988B8F878F8598890E945F33E4
:1011A000882309F49CC0E091E202F091E30284817B
:1011B0009581FC0180819181FC013896808191812B
:1011C000FC013C96848195819C01E091E202F091C2
:1011D000E30284819581FC0180819181F901099567
:1011E00060E070E00E94DC339C838B838D899E8954
:1011F000FC0138968081918160E070E00E94F44BA0
:10120000FC0184819581FC0180819181FC018081B8
:101210009181FC013696848195818C018D899E890E
:10122000FC0138968081918160E070E00E94F44B6F
:10123000FC0184819581FC01808191812B813C811D
:10124000B901F8010995E091E002F091E102848191
:101250009581FC0180819181FC013896808191818A
:10126000FC013C96848195819C01E091E002F09123
:10127000E10284819581FC0180819181F9010995C8
:101280009A8389838D899E89FC013696808191811C
:1012900060E070E00E94F44BFC0184819581FC01C8
:1012A00080819181FC0180819181FC01369684814D
:1012B00095818C018D899E89FC0136968081918172
:1012C00060E070E00E94F44BFC0184819581FC0198
:1012D0008081918129813A81B901F801099580E0E5
:1012E00060E070E00E94DD4A9E878D878D899E892F
:1012F000FC013A968081918160E070E00E94F44B9D
:10130000FC0184819581FC0180819181FC018081B7
:101310009181FC013696848195818C018D899E890D
:10132000FC013A968081918160E070E00E94F44B6C
:10133000FC0184819581FC0180819181F8010995EE
:101340008C0180E991E060E070E00E94B14A9C016C
:10135000C801B90140E050E00E9412440E945F338E
:10136000882309F443C08D899E89FC013C968081C5
:10137000918160E070E00E94F44BFC0184819581D2
:10138000FC0180819181FC0180819181FC01369674
:10139000848195818C018D899E89FC013C96808198
:1013A000918160E070E00E94F44BFC0184819581A2
:1013B000FC0180819181F80109958C0180E991E01F
:1013C00060E070E00E94B14A9C01C801B90140E0B0
:1013D00050E00E9412440E945F33882339F081E07C
:1013E00060E070E00E94DD4A9E878D878D859E8536
:1013F0000E945F3366960FB6F894DEBF0FBECDBF76
:10140000CF91DF911F910F910895DF93CF93CDB7C7
:10141000DEB70E94D1059093D3028093D202CF9180
:10142000DF910895DF93CF93CDB7DEB78091D202DD
:101430009091D3020E94882CCF91DF910895DF9381
:10144000CF93CDB7DEB7CF91DF910895DF93CF93E0
:10145000CDB7DEB7CF91DF910895DF93CF9300D062
:10146000CDB7DEB79A83898389819A81009731F459
:1014700080E190E00E94886C9A83898389819A81B7
:10148000009701F1E981FA8186E090E093838283FD
:10149000E981FA8115821482E981FA818DE691E071
:1014A00091838083E981FA8117821682E981FA812A
:1014B00011861086E981FA8113861286E981FA8104
:1014C0001586148689819A810F900F90CF91DF91B4
:1014D0000895DF93CF9300D000D000D0CDB7DEB712
:1014E00080E090E00E942D0A9A838983E981FA8145
:1014F0006281738189819A819C012C5F3F4F4EEA02
:1015000055E0E981FA81CB01B9019F010E94C947E9
:101510001B821C821D821E829C838B832B813C81BB
:101520004D815E818BE090E0BA01A9010E9499246F
:1015300026960FB6F894DEBF0FBECDBFCF91DF91D8
:1015400008950F931F93DF93CF93CDB7DEB76497C2
:101550000FB6F894DEBF0FBECDBF9C878B877E870A
:101560006D87588B4F873A8B298B1C8B0B8B1A8678
:1015700019868B859C85009769F40E94690A9A8771
:101580008987E985FA8584819581FC018081918133
:101590009C878B878D859E8560E070E00E94F44B70
:1015A00098878F838B859C85FC01369680819181FD
:1015B0000E94882C8B859C858C010A5F1F4F8F8130
:1015C00098850E94CB28F801918380838F8198852C
:1015D0000E94882C8F85988960E070E00E94F44B0F
:1015E0009E838D838B859C85FC01389680819181BB
:1015F0000E94882C8B859C858C01085F1F4F8D81F4
:101600009E810E94CB28F801918380838D819E81E9
:101610000E94882C89899A8960E070E00E94F44BCE
:101620009C838B838B859C85FC013A96808191817C
:101630000E94882C8B859C858C01065F1F4F8B81B7
:101640009C810E94CB28F801918380838B819C81AF
:101650000E94882C8B899C8960E070E00E94F44B8A
:101660009A8389838B859C85FC013C96808191813E
:101670000E94882C8B859C858C01045F1F4F89817B
:101680009A810E94CB28F8019183808389819A8175
:101690000E94882C89859A8564960FB6F894DEBFDF
:1016A0000FBECDBFCF91DF911F910F910895DF93B2
:1016B000CF9300D000D0CDB7DEB79C838B831A8246
:1016C00019828B819C81009769F40E94690A9A8330
:1016D0008983E981FA8184819581FC0180819181EE
:1016E0009C838B8389819A810F900F900F900F902C
:1016F000CF91DF910895CF92DF92EF92FF920F93F7
:101700001F93DF93CF93CDB7DEB762970FB6F894F0
:10171000DEBF0FBECDBF9C838B837E836D835887D6
:101720004F833A8729871C870B87FE86ED86D88AE8
:10173000CF868B859C859093B9038093B8038F8166
:1017400098852FE731E0B9010E94816E0097C1F1C1
:10175000E091B803F091B903408151812091FA03DF
:101760003091FB038DB79EB70C970FB6F8949EBFD0
:101770000FBE8DBFEDB7FEB7319681E090E091834B
:1017800080833383228383E090E09583848386EA99
:1017900091E0978386838FEA91E09187808783EB3E
:1017A00091E093878287FA0109958DB79EB70C96D1
:1017B0000FB6F8949EBF0FBE8DBF1A8A198A32C029
:1017C0008B819C810E94916E01960E94886C9A8305
:1017D000898389819A812B813C81B9010E948A6E1B
:1017E00089819A819093FB038093FA0389859A8576
:1017F0000E94916E019661E070E00E946C6C909383
:101800002903809328038091280390912903298537
:101810003A85B9010E948A6E0E943C1381E090E0F3
:101820009A8B898B89899A8962960FB6F894DEBF64
:101830000FBECDBFCF91DF911F910F91FF90EF9021
:10184000DF90CF9008958F929F92AF92BF92CF92E8
:10185000DF92EF92FF920F931F93DF93CF93CDB759
:10186000DEB762970FB6F894DEBF0FBECDBF9A8386
:1018700089837C836B832D833E834F835887E986DE
:10188000FA860B871C87DE86CD868F86988AA98A82
:10189000BA8A80E090E062960FB6F894DEBF0FBE81
:1018A000CDBFCF91DF911F910F91FF90EF90DF900F
:1018B000CF90BF90AF909F908F900895DF93CF937C
:1018C00000D0CDB7DEB79A83898380E090E00F9097
:1018D0000F90CF91DF910895DF93CF9300D0CDB7D4
:1018E000DEB79A83898380E090E00F900F90CF91CC
:1018F000DF910895DF93CF9300D0CDB7DEB79A8301
:10190000898380E090E00F900F90CF91DF91089550
:10191000DF93CF9300D0CDB7DEB79A83898380E081
:1019200090E00F900F90CF91DF910895DF93CF93C8
:1019300000D0CDB7DEB79A8389830E94BE130F9083
:101940000F90CF91DF910895DF93CF93CDB7DEB79E
:1019500082EC91E0CF91DF910895DF93CF93CDB7E3
:10196000DEB786EC91E0CF91DF910895DF93CF93BE
:10197000CDB7DEB728970FB6F894DEBF0FBECDBF48
:101980009A8389837C836B835E834D8338872F831F
:1019900080E090E028960FB6F894DEBF0FBECDBF72
:1019A000CF91DF910895DF93CF93CDB7DEB72C971A
:1019B0000FB6F894DEBF0FBECDBF9E838D837887B0
:1019C0006F835A8749873C872B871C821B8231C0D3
:1019D0008B819C819C01220F331F8F819885FC0194
:1019E000E20FF31F808191819A8389838B819C818F
:1019F0009C01220F331F220F331F8B859C85280FDC
:101A0000391F89819A810496880F991F880F991F21
:101A1000FC01E654FC4F80819181A281B381F901E0
:101A200080839183A283B3838B819C8101969C8365
:101A30008B832B813C8189859A852817390740F251
:101A400080E090E02C960FB6F894DEBF0FBECDBFBD
:101A5000CF91DF910895DF93CF93CDB7DEB72C9769
:101A60000FB6F894DEBF0FBECDBF9E838D837887FF
:101A70006F835A8749873C872B871C821B822AC029
:101A80008B819C819C01220F331F8F819885FC01E3
:101A9000E20FF31F808191819A8389838B819C81DE
:101AA0009C01220F331F8B859C85DC01A20FB31F85
:101AB00089819A814896880F991FFC01E654FC4F52
:101AC0008081918111969C938E938B819C8101964C
:101AD0009C838B832B813C8189859A8528173907C4
:101AE00078F280E090E02C960FB6F894DEBF0FBE3F
:101AF000CDBFCF91DF910895DF93CF93CDB7DEB700
:101B00002C970FB6F894DEBF0FBECDBF9E838D839A
:101B100078876F835A8749873C872B871C821B8273
:101B200029C08B819C819C01220F331F8F81988556
:101B3000FC01E20FF31F808191819A8389838B815D
:101B40009C819C01220F331F8B859C85DC01A20F99
:101B5000B31F89819A81880F991FFC01E654FC4FBD
:101B60008081918111969C938E938B819C810196AB
:101B70009C838B832B813C8189859A852817390723
:101B800080F280E090E02C960FB6F894DEBF0FBE96
:101B9000CDBFCF91DF910895DF93CF93CDB7DEB75F
:101BA00028970FB6F894DEBF0FBECDBF9A83898306
:101BB0007C836B835E834D8338872F8380E090E046
:101BC00028960FB6F894DEBF0FBECDBFCF91DF9140
:101BD0000895DF93CF93CDB7DEB72C970FB6F89467
:101BE000DEBF0FBECDBF9E838D8378876F835A87FC
:101BF00049873C872B871C821B8232C08B819C814A
:101C00009C01220F331F8F819885FC01E20FF31F87
:101C1000808191819A83898369817A818B819C817A
:101C20009C01220F331F220F331F8B859C85FC01E3
:101C3000E20FF31F2081318142815381CB01049651
:101C4000880F991F880F991FFC01E654FC4F2083D1
:101C50003183428353838B819C8101969C838B8348
:101C60002B813C8189859A852817390738F280E0D5
:101C700090E02C960FB6F894DEBF0FBECDBFCF918B
:101C8000DF910895DF93CF93CDB7DEB72C970FB6D2
:101C9000F894DEBF0FBECDBF9E838D8378876F83A0
:101CA0005A8749873C872B871C821B822AC08B81DD
:101CB0009C819C01220F331F8F819885FC01E20FCC
:101CC000F31F808191819A83898349815A818B8115
:101CD0009C819C01220F331F8B859C85FC01E20FA8
:101CE000F31F20813181CA014896880F991FFC019A
:101CF000E654FC4F318320838B819C8101969C8329
:101D00008B832B813C8189859A852817390778F246
:101D100080E090E02C960FB6F894DEBF0FBECDBFEA
:101D2000CF91DF910895DF93CF93CDB7DEB72C9796
:101D30000FB6F894DEBF0FBECDBF9E838D8378872C
:101D40006F835A8749873C872B871C821B8229C057
:101D50008B819C819C01220F331F8F819885FC0110
:101D6000E20FF31F808191819A83898349815A818F
:101D70008B819C819C01220F331F8B859C85FC01EC
:101D8000E20FF31F20813181CA01880F991FFC01E6
:101D9000E654FC4F318320838B819C8101969C8388
:101DA0008B832B813C8189859A852817390780F29E
:101DB00080E090E02C960FB6F894DEBF0FBECDBF4A
:101DC000CF91DF910895DF93CF93CDB7DEB72897FA
:101DD0000FB6F894DEBF0FBECDBF9A8389837C8394
:101DE0006B835E834D8338872F8380E090E0289655
:101DF0000FB6F894DEBF0FBECDBFCF91DF9108952F
:101E0000DF93CF9300D000D0CDB7DEB79A8389831C
:101E10007C836B8380E090E00F900F900F900F9089
:101E2000CF91DF910895DF93CF9300D000D0CDB74D
:101E3000DEB79A8389837C836B8380E090E00F9088
:101E40000F900F900F90CF91DF910895DF93CF9374
:101E500000D000D0CDB7DEB79A8389837C836B83B3
:101E600080E090E00F900F900F900F90CF91DF9156
:101E70000895DF93CF9300D000D000D0CDB7DEB768
:101E80009A8389837C836B835E834D8380E090E0BB
:101E900026960FB6F894DEBF0FBECDBFCF91DF916F
:101EA0000895DF93CF93CDB7DEB728970FB6F89498
:101EB000DEBF0FBECDBF9A8389837C836B835E8335
:101EC0004D8338872F8380E090E028960FB6F894F2
:101ED000DEBF0FBECDBFCF91DF910895DF93CF93CB
:101EE000CDB7DEB728970FB6F894DEBF0FBECDBFD3
:101EF0009A8389837C836B835E834D8338872F83AA
:101F000080E090E028960FB6F894DEBF0FBECDBFFC
:101F1000CF91DF910895CF92DF92EF92FF920F93CE
:101F20001F93DF93CF93CDB7DEB72E970FB6F894FC
:101F3000DEBF0FBECDBF9A8389837C836B835E83B4
:101F40004D8338872F831A870987FC86EB86DE86C8
:101F5000CD8680E090E02E960FB6F894DEBF0FBEDF
:101F6000CDBFCF91DF911F910F91FF90EF90DF9048
:101F7000CF9008950F931F93DF93CF93CDB7DEB724
:101F80002A970FB6F894DEBF0FBECDBF9A83898320
:101F90007C836B835E834D8338872F831A87098701
:101FA00080E090E02A960FB6F894DEBF0FBECDBF5A
:101FB000CF91DF911F910F9108950F931F93DF939E
:101FC000CF93CDB7DEB72A970FB6F894DEBF0FBE1A
:101FD000CDBF9A8389837C836B835E834D833887EF
:101FE0002F831A87098780E090E02A960FB6F8942D
:101FF000DEBF0FBECDBFCF91DF911F910F9108952E
:10200000DF93CF9300D0CDB7DEB79A83898380E08A
:1020100090E00F900F90CF91DF910895EF92FF9293
:102020000F931F93DF93CF93CDB7DEB72E970FB6E5
:10203000F894DEBF0FBECDBF9C838B834D835E8340
:102040006F83788709871A872B873C87FE86ED8602
:102050000E94E2108D819E81AF81B88529853A85E5
:102060004B855C85BC01CD010E94F9139A8389835D
:102070000E94641289819A812E960FB6F894DEBF71
:102080000FBECDBFCF91DF911F910F91FF90EF90C9
:102090000895DF93CF9300D000D000D0CDB7DEB746
:1020A0009A8389837C836B835E834D8380E090E099
:1020B00026960FB6F894DEBF0FBECDBFCF91DF914D
:1020C0000895DF93CF9300D000D000D0CDB7DEB716
:1020D0009A8389837C836B835E834D8380E090E069
:1020E00026960FB6F894DEBF0FBECDBFCF91DF911D
:1020F0000895DF93CF9300D000D000D0CDB7DEB7E6
:102100009A8389837C836B835E834D8380E090E038
:1021100026960FB6F894DEBF0FBECDBFCF91DF91EC
:102120000895DF93CF9300D000D000D0CDB7DEB7B5
:102130009A8389837C836B835E834D8380E090E008
:1021400026960FB6F894DEBF0FBECDBFCF91DF91BC
:102150000895DF93CF9300D000D000D0CDB7DEB785
:102160009A8389837C836B835E834D8380E090E0D8
:1021700026960FB6F894DEBF0FBECDBFCF91DF918C
:102180000895DF93CF9300D000D0CDB7DEB79A8308
:1021900089837C836B838091D8029091D902A0912E
:1021A000DA02B091DB02EB81FC8180839183A28310
:1021B000B38380E090E00F900F900F900F90CF913D
:1021C000DF9108950F931F93DF93CF93CDB7DEB7C1
:1021D00062970FB6F894DEBF0FBECDBF8091CA03E1
:1021E0009091CB03A091CC03B091CD03BC01CD0164
:1021F0000E9418259A8B898BE091E002F091E10210
:1022000084819581FC0180819181FC013E968081D1
:1022100091810E94882CE091E002F091E10284819A
:102220009581FC01808191818C01025F1F4F89891A
:102230009A890E94CB28F8019183808389899A89A1
:102240000E94882C8091CE039091CF03A091D0035F
:10225000B091D103BC01CD010E941825988B8F87C6
:10226000E0912203F091230384819581FC01808118
:102270009181FC013696808191810E94CB289E87B6
:102280008D87ED85FE8584819581FC01808191811A
:10229000FC013E96808191810E94882CED85FE850F
:1022A00084819581FC01808191818C01025F1F4FA7
:1022B0008F8598890E94CB28F801918380838F8530
:1022C00098890E94882C8D859E850E94882C8091FB
:1022D000D2039091D303A091D403B091D503BC0154
:1022E000CD010E9418259C878B87E0912203F091F5
:1022F000230384819581FC0180819181FC013896C2
:10230000808191810E94CB289A878987E985FA8507
:1023100084819581FC0180819181FC013E968081C0
:1023200091810E94882CE985FA8584819581FC0140
:10233000808191818C01025F1F4F8B859C850E945B
:10234000CB28F801918380838B859C850E94882C03
:1023500089859A850E94882C8091DA039091DB030D
:10236000A091DC03B091DD03BC01CD010E941825D2
:1023700098878F83E0912203F091230384819581D4
:10238000FC0180819181FC013A96808191810E94BB
:10239000CB289E838D83ED81FE8184819581FC0114
:1023A00080819181FC013E96808191810E94882CE0
:1023B000ED81FE8184819581FC01808191818C0178
:1023C000025F1F4F8F8198850E94CB28F80191836F
:1023D00080838F8198850E94882C8D819E810E94A8
:1023E000882C8091E2039091E303A091E403B091E3
:1023F000E503BC01CD010E9418259C838B83E091ED
:10240000E202F091E30284819581FC018081918157
:10241000FC013E96808191810E94882CE091E2022D
:10242000F091E30284819581FC01808191818C018E
:10243000025F1F4F8B819C810E94CB28F801918302
:1024400080838B819C810E94882C8091E6039091EF
:10245000E703A091E803B091E903BC01CD010E941C
:1024600018259A838983E091DE02F091DF0284814E
:102470009581FC0180819181FC013E968081918152
:102480000E94882CE091DE02F091DF028481958128
:10249000FC01808191818C01025F1F4F89819A81AB
:1024A0000E94CB28F8019183808389819A810E94C0
:1024B000882C62960FB6F894DEBF0FBECDBFCF91C9
:1024C000DF911F910F910895DF93CF93CDB7DEB7C2
:1024D00028970FB6F894DEBF0FBECDBF8091CE0116
:1024E0009091CF01009709F46CC0E0912203F09124
:1024F000230384819581FC0180819181FC013E96BA
:10250000808191810E94CB2898878F83EF81F88505
:1025100084819581FC0180819181FC013E968081BE
:1025200091810E94CB289E838D83ED81FE818481E1
:102530009581A681B7818093D6039093D703A0930A
:10254000D803B093D9038D819E810E94882C8F81FE
:1025500098850E94882CE0912203F09123038481C6
:102560009581FC0180819181FC013C968081918163
:102570000E94CB289C838B83EB81FC818481958195
:10258000FC0180819181FC013E96808191810E94B5
:10259000CB289A838983E981FA8184819581A681F8
:1025A000B7818093DE039093DF03A093E003B093A1
:1025B000E10389819A810E94882C8B819C810E94F1
:1025C000882C28960FB6F894DEBF0FBECDBFCF91F2
:1025D000DF910895DF93CF93CDB7DEB7E091240369
:1025E000F091250384819581FC0180819181FC011A
:1025F00080819181FC013696848195819C01E091D6
:102600002403F091250384819581FC0180819181CF
:10261000F9010995E091B803F091B9034081518126
:102620002091FA033091FB038DB79EB70A970FB63E
:10263000F8949EBF0FBE8DBFEDB7FEB7319681E017
:1026400090E091838083338322831582148280ED0E
:1026500091E09783868387ED91E091878087FA01E7
:1026600009958DB79EB70A960FB6F8949EBF0FBE18
:102670008DBFCF91DF9108950F931F93DF93CF9379
:1026800000D0CDB7DEB70E9413481A82198236C037
:1026900009811A8189819A81880F991F9C01220FD3
:1026A000331F220F331F820F931FFC01EC5EFD4F7F
:1026B00080819181A281B381BC01CD0128E23BE6FA
:1026C0004EE65EE40E94246FDC01CB01AC01BD014B
:1026D000C801880F991F9C01220F331F220F331F3F
:1026E000820F931FFC01EC5EFD4F40835183628398
:1026F000738389819A8101969A83898389819A81DA
:10270000181619062CF60E94681D0E946A1A0E946B
:10271000EC180E946C040E94C11B0E94A8200E9419
:10272000050A0E9427220E94E9230E944B170E945B
:10273000F41E0E94821D0E94841A0E94FA180E94B0
:102740007A040E94CF1B0E94B6200E941F0A0E949A
:1027500041220E9403240E9489170E940E1F80E0DC
:1027600090E00E94CB229093D7028093D6020F90E4
:102770000F90CF91DF911F910F910895DF93CF9329
:10278000CDB7DEB70E94891D0E948B1A0E940119E5
:102790000E9481040E94D61B0E94BD200E94260A2E
:1027A0000E9454220E940A240E9490170E94151F22
:1027B0000E94751D0E94771A0E94F3180E947304EC
:1027C0000E94C81B0E94AF200E94120A0E9434225D
:1027D0000E94F6230E946A170E94011F8091D60270
:1027E0009091D7020E94882C0E946B49CF91DF9173
:1027F0000895CF92DF92EF92FF920F931F93DF9392
:10280000CF93CDB7DEB72E970FB6F894DEBF0FBECD
:10281000CDBF6F83788789879A872B873C874D87C1
:102820005E871E821D82A1C18D819E81880F991FA6
:102830009C01220F331F220F331F820F931FFC01B5
:10284000E65EFD4F80819181A281B381BC01CD0103
:102850002F81388549855A850E94C27088230CF4DF
:10286000C6C08D819E81880F991F9C01220F331F46
:10287000220F331F820F931FFC01E65EFD4FE080A5
:10288000F180028113816F81788589859A852B85F6
:102890003C854D855E850E94BC6EDC01CB019C01B0
:1028A000AD01C801B7010E94C27088233CF01A82B2
:1028B00019821092CF011092CE01EFC08D819E81BE
:1028C000880F991F9C01220F331F220F331F820F85
:1028D000931FFC01E65EFD4FE080F18002811381D1
:1028E0008D819E81880F991F9C01220F331F220F1B
:1028F000331F820F931FFC01EC5EFD4F208131815D
:1029000042815381C801B7010E94BC6EDC01CB013A
:102910007C018D016F81788589859A852B853C8521
:102920004D855E850E94BC6EDC01CB019C01AD0132
:10293000C801B7010E94206F18160CF44FC06F81B8
:10294000788589859A852B853C854D855E850E9495
:10295000BC6EDC01CB017C018D018D819E81880FD5
:10296000991F9C01220F331F220F331F820F931FC9
:10297000FC01E65EFD4F2081318142815381C80117
:10298000B7010E94BB6EDC01CB017C018D018D8102
:102990009E81880F991F9C01220F331F220F331F26
:1029A000820F931FFC01EC5EFD4F2081318142813B
:1029B0005381C801B7010E94246FDC01CB01BC0127
:1029C000CD010E948C6FDC01CB019A83898381E069
:1029D00090E09093CF018093CE015FC01A8219825C
:1029E00081E090E09093CF018093CE0156C06F813B
:1029F000788589859A852B853C854D855E850E94E5
:102A0000BC6EDC01CB017C018D018D819E81880F24
:102A1000991F9C01220F331F220F331F820F931F18
:102A2000FC01E65EFD4F2081318142815381C80166
:102A3000B7010E94BB6EDC01CB017C018D018D8151
:102A40009E81880F991F9C01220F331F220F331F75
:102A5000820F931FFC01EC5EFD4F2081318142818A
:102A60005381C801B7010E94246FDC01CB01BC0176
:102A7000CD010E948C6FDC01CB019A83898381E0B8
:102A800090E09093CF018093CE0189819A81009745
:102A900021F41092CF011092CE011C821B8256C0ED
:102AA0008D819E81880F991F9C01220F331F220F59
:102AB000331F820F931FFC01E85EFD4F0190F081F0
:102AC000E02D0995CD80DE808D819E81880F991F34
:102AD0009C01220F331F220F331F820F931FFC0113
:102AE000E65EFD4FE080F180028113818D819E8141
:102AF000880F991F9C01220F331F220F331F820F53
:102B0000931FFC01EC5EFD4F208131814281538196
:102B1000C801B7010E94BC6EDC01CB01AC01BD0154
:102B2000C601880F991F9C01220F331F220F331FEC
:102B3000820F931FFC01E65EFD4F40835183628349
:102B400073838B819C8101969C838B832B813C8139
:102B500089819A81281739070CF4A2CF0E94B049C5
:102B60008D819E8101969E838D838D819E81181615
:102B700019060CF059CE80E09EEFAFEFB6E48093DB
:102B8000D8029093D902A093DA02B093DB0280E0DE
:102B900090E02E960FB6F894DEBF0FBECDBFCF915A
:102BA000DF911F910F91FF90EF90DF90CF900895EC
:102BB000DF93CF9300D0CDB7DEB780E090E00E94E6
:102BC00075249A838983E981FA8184819581FC0146
:102BD00080819181FC010190F081E02D84819581BB
:102BE0009C01E981FA8184819581FC018081918138
:102BF000F901099589819A810E94882C0F900F9084
:102C0000CF91DF910895DF93CF9300D0CDB7DEB79A
:102C10009A838983E981FA81868197810E94882C31
:102C2000E981FA81808591850E94882CE981FA8169
:102C3000828593850E94882CE981FA818485958517
:102C40000E94882CE981FA81868597850E94882CCC
:102C50000F900F90CF91DF910895DF93CF9300D025
:102C6000CDB7DEB79A838983E981FA818481958122
:102C70000197E981FA8195838483E981FA818481CE
:102C80009581009741F489819A810E940316898178
:102C90009A810E94356D0F900F90CF91DF9108952A
:102CA000DF93CF9300D000D0CDB7DEB79C838B836A
:102CB00060E070E080E090E00E9418259C0180E0D8
:102CC00090E0B9010E94811C9A83898389819A814D
:102CD0000F900F900F900F90CF91DF910895DF9399
:102CE000CF9300D000D0CDB7DEB79C838B8360E05C
:102CF00070E080E090E00E9418259C0180E090E068
:102D0000B9010E94811C9A83898389819A810F90DD
:102D10000F900F900F90CF91DF910895DF93CF9395
:102D200000D000D0CDB7DEB79C838B8360E070E02D
:102D300080E090E00E9418259C0180E090E0B901BD
:102D40000E94811C9A83898389819A810F900F90B8
:102D50000F900F90CF91DF910895DF93CF9300D024
:102D600000D0CDB7DEB79C838B8360E070E080E05D
:102D700090E00E9418259C0180E090E0B9010E943B
:102D8000811C9A83898389819A810F900F900F907B
:102D90000F90CF91DF910895DF93CF9300D000D0B3
:102DA000CDB7DEB79C838B8360E070E080E090E07D
:102DB0000E9418259C0180E090E0B9010E94811CCE
:102DC0009A83898389819A810F900F900F900F9039
:102DD000CF91DF910895DF93CF9300D0CDB7DEB7C9
:102DE00060E070E080E89FE30E9418259C0180E08D
:102DF00090E0B9010E94811C9A83898389819A811C
:102E00000F900F90CF91DF910895DF93CF9300D073
:102E1000CDB7DEB760E070E080EA90E40E9418254C
:102E20009C0180E090E0B9010E94811C9A83898313
:102E300089819A810F900F90CF91DF910895DF9350
:102E4000CF9300D0CDB7DEB760E070E080E890E4CB
:102E50000E9418259C0180E090E0B9010E94811C2D
:102E60009A83898389819A810F900F90CF91DF9106
:102E70000895DF93CF9300D0CDB7DEB788E090E020
:102E80000E94D4249A83898389819A810F900F901C
:102E9000CF91DF910895DF93CF93CDB7DEB70E9436
:102EA00039179093DD028093DC020E941F179093E4
:102EB000DF028093DE020E9405179093E102809367
:102EC000E0020E94EB169093E3028093E202CF911E
:102ED000DF910895DF93CF93CDB7DEB78091DC0209
:102EE0009091DD020E94882C8091DE029091DF0299
:102EF0000E94882C8091E0029091E1020E94882C2F
:102F00008091E2029091E3020E94882CCF91DF91A0
:102F10000895DF93CF93CDB7DEB7CF91DF910895BA
:102F2000DF93CF93CDB7DEB7CF91DF910895DF93D5
:102F3000CF9300D0CDB7DEB79A83898389819A81F8
:102F4000009731F482E190E00E94886C9A83898333
:102F500089819A810097C1F1E981FA8189E090E045
:102F600093838283E981FA8115821482E981FA814F
:102F70008EE192E09183808389819A810E94CC16B0
:102F8000E981FA819783868389819A810E94AD16AF
:102F9000E981FA819187808789819A810E948E16C2
:102FA000E981FA819387828789819A810E946F16CD
:102FB000E981FA819587848789819A810E945016D8
:102FC000E981FA819787868789819A810F900F908E
:102FD000CF91DF910895DF93CF9300D000D000D040
:102FE000CDB7DEB780E090E00E9497179A8389837F
:102FF000E981FA816281738189819A819C012C5FC8
:103000003F4F4DE256E1E981FA81CB01B9019F01C1
:103010000E94C9471B821C821D821E829C838B8357
:103020002B813C814D815E818BE090E0BA01A9014A
:103030000E94992426960FB6F894DEBF0FBECDBF2E
:10304000CF91DF910895DF93CF9300D000D0CDB71B
:10305000DEB79C838B831A8219828B819C810097B7
:1030600069F40E94EB179A838983E981FA8184814C
:103070009581FC01808191819C838B8389819A81D8
:103080000F900F900F900F90CF91DF910895DF93E5
:10309000CF9300D0CDB7DEB79A838983E981FA81D7
:1030A000868597850E94882C0F900F90CF91DF9195
:1030B0000895DF93CF9300D0CDB7DEB79A8389838D
:1030C000E981FA81848595850197E981FA8195875F
:1030D0008487E981FA8184859585009741F4898107
:1030E0009A810E94471889819A810E94356D0F90BC
:1030F0000F90CF91DF910895DF93CF9300D000D050
:10310000CDB7DEB79C838B8380E090E00E94D4240F
:103110009A83898389819A810F900F900F900F90E5
:10312000CF91DF9108950F931F93DF93CF9300D03A
:1031300000D000D0CDB7DEB79C838B837E836D83B8
:103140008D819E8160E070E00E94F44B9A838983B8
:103150008B819C81FC013E96808191810E94882C0C
:103160008B819C818C01025F1F4F89819A810E9413
:10317000CB28F8019183808389819A810E94882CD1
:1031800026960FB6F894DEBF0FBECDBFCF91DF916C
:103190001F910F910895DF93CF9300D000D0CDB74A
:1031A000DEB79C838B838B819C81FC013E96808162
:1031B000918160E070E00E94F44B60E070E00E945A
:1031C000F44B9A83898389819A810F900F900F9095
:1031D0000F90CF91DF910895DF93CF93CDB7DEB7F6
:1031E000CF91DF910895DF93CF93CDB7DEB7CF9125
:1031F000DF910895DF93CF93CDB7DEB7CF91DF9105
:103200000895DF93CF93CDB7DEB7CF91DF910895C7
:10321000DF93CF9300D000D0CDB7DEB79C838B83F4
:103220008B819C819A83898389819A810E94CB18A2
:103230000F900F900F900F90CF91DF910895DF9333
:10324000CF9300D0CDB7DEB79A83898389819A81E5
:10325000009731F482E190E00E94886C9A83898320
:1032600089819A810097C9F189819A810E94921A75
:103270008091E8029091E902009789F4E981FA814E
:103280002081318184EE92E0B90142E150E00E9458
:10329000716E88E099E19093EF028093EE02E981EC
:1032A000FA8184EE92E091838083E981FA8182E061
:1032B00090E093878287E981FA8115861486E981F7
:1032C000FA8184E292E09187808789819A810E94C5
:1032D0007C18E981FA819787868789819A810F9086
:1032E0000F90CF91DF910895DF93CF9300D000D05E
:1032F00000D0CDB7DEB780E090E00E941F199A831E
:103300008983E981FA816285738589819A819C012B
:10331000245F3F4F49E558E1E981FA81CB01B901CA
:103320009F010E94C9471B821C821D821E829C83B2
:103330008B832B813C814D815E818BE090E0BA01D3
:10334000A9010E94992426960FB6F894DEBF0FBEFD
:10335000CDBFCF91DF910895DF93CF9300D000D000
:1033600000D0CDB7DEB79C838B837E836D831A82BA
:1033700019828B819C81009769F40E9474199A8349
:103380008983E981FA8184819581FC018081918121
:103390009C838B838B819C81FC01389680819181F9
:1033A000FC01369684819581FC018B819C812D8165
:1033B0003E81B901099589819A8126960FB6F894C4
:1033C000DEBF0FBECDBFCF91DF910895DF93CF93C6
:1033D00000D000D0CDB7DEB79C838B831A821982D0
:1033E0008B819C81009769F40E9474199A83898368
:1033F000E981FA8184819581FC01808191819C839E
:103400008B8389819A810F900F900F900F90CF91AD
:10341000DF910895DF93CF9300D0CDB7DEB79A83C5
:1034200089830F900F90CF91DF910895DF93CF9311
:1034300000D0CDB7DEB79A838983E981FA81848190
:1034400095810197E981FA8195838483E981FA81E5
:1034500084819581009741F489819A810E940A1A9A
:1034600089819A810E94356D0F900F90CF91DF91E5
:103470000895DF93CF9300D0CDB7DEB780E090E022
:103480000E94D4249A83898389819A810F900F9016
:10349000CF91DF910895DF93CF9300D000D0CDB7C7
:1034A000DEB79A8389837C836B830F900F900F9094
:1034B0000F90CF91DF910895DF93CF9300D0CDB7D8
:1034C000DEB79A83898380E090E00F900F90CF91D0
:1034D000DF910895DF93CF93CDB7DEB70E94391AFD
:1034E0009093F7028093F602CF91DF910895DF93D6
:1034F000CF93CDB7DEB78091F6029091F7020E948C
:10350000882CCF91DF910895DF93CF93CDB7DEB7AD
:10351000CF91DF910895DF93CF93CDB7DEB7CF91F1
:10352000DF910895DF93CF9300D0CDB7DEB79A83B4
:10353000898389819A81009731F488E090E00E9424
:10354000886C9A83898389819A81009781F0E981C7
:10355000FA8181E090E093838283E981FA81158288
:103560001482E981FA818CE392E0918380838981DE
:103570009A810F900F90CF91DF910895DF93CF93B1
:1035800000D000D000D0CDB7DEB780E090E00E9440
:10359000921A9A838983E981FA8162817381898190
:1035A0009A819C012C5F3F4F46E15AE1E981FA8103
:1035B000CB01B9019F010E94C9471B821C821D8259
:1035C0001E829C838B832B813C814D815E818BE0AD
:1035D00090E0BA01A9010E94992426960FB6F894AA
:1035E000DEBF0FBECDBFCF91DF910895DF93CF93A4
:1035F00000D000D0CDB7DEB79C838B831A821982AE
:103600008B819C81009769F40E94BE1A9A838983FA
:10361000E981FA8184819581FC01808191819C837B
:103620008B8389819A810F900F900F900F90CF918B
:10363000DF910895DF93CF9300D0CDB7DEB79A83A3
:103640008983E981FA81868597850E94882C0F906D
:103650000F90CF91DF910895DF93CF9300D0CDB736
:10366000DEB79A838983E981FA81848595850197FC
:10367000E981FA8195878487E981FA818485958536
:10368000009741F489819A810E941A1B89819A814D
:103690000E94356D0F900F90CF91DF910895DF93C9
:1036A000CF9300D000D0CDB7DEB79C838B8360E092
:1036B00070E080E090E00E9418259A8389838981D8
:1036C0009A810F900F900F900F90CF91DF910895F6
:1036D0000F931F93DF93CF9300D000D000D0CDB7CE
:1036E000DEB79C838B837E836D838D819E8160E0BA
:1036F00070E00E94F44B9A8389838B819C81FC014A
:103700003E96808191810E94882C8B819C818C01C6
:10371000025F1F4F89819A810E94CB28F801918313
:10372000808389819A810E94882C26960FB6F8940E
:10373000DEBF0FBECDBFCF91DF911F910F910895D6
:10374000DF93CF9300D000D0CDB7DEB79C838B83BF
:103750008B819C81FC013E968081918160E070E0CC
:103760000E94F44B60E070E00E94F44B9A838983DE
:1037700089819A810F900F900F900F90CF91DF91D8
:103780000895DF93CF93CDB7DEB7CF91DF91089542
:10379000DF93CF93CDB7DEB7CF91DF910895DF935D
:1037A000CF93CDB7DEB7CF91DF910895DF93CF935D
:1037B000CDB7DEB7CF91DF910895DF93CF9300D0DF
:1037C00000D0CDB7DEB79C838B838B819C819A839D
:1037D000898389819A810E94A01B0F900F900F907E
:1037E0000F90CF91DF910895DF93CF9300D0CDB7A5
:1037F000DEB79A83898389819A81009731F482E1C7
:1038000090E00E94886C9A83898389819A810097CD
:10381000C9F189819A810E94921A8091FC0290914B
:10382000FD02009789F4E981FA812081318188EFD6
:1038300092E0B90142E150E00E94716E8DED9BE192
:103840009093030380930203E981FA8188EF92E069
:1038500091838083E981FA8184E090E09387828775
:10386000E981FA8115861486E981FA818EE492E075
:103870009187808789819A810E944F1BE981FA8113
:103880009787868789819A810F900F90CF91DF91DA
:103890000895DF93CF9300D000D000D0CDB7DEB72E
:1038A00080E090E00E94F41B9A838983E981FA8189
:1038B0006285738589819A819C01245F3F4F4CE228
:1038C0005BE1E981FA81CB01B9019F010E94C947FF
:1038D0001B821C821D821E829C838B832B813C81D8
:1038E0004D815E818BE090E0BA01A9010E9499248C
:1038F00026960FB6F894DEBF0FBECDBFCF91DF91F5
:103900000895DF93CF9300D000D000D0CDB7DEB7BD
:103910009C838B837E836D831A8219828B819C8129
:10392000009769F40E94491C9A838983E981FA818E
:1039300084819581FC01808191819C838B838B8123
:103940009C81FC01389680819181FC0136968481AE
:103950009581FC018B819C812D813E81B901099566
:1039600089819A8126960FB6F894DEBF0FBECDBF2F
:10397000CF91DF910895DF93CF9300D000D0CDB7E2
:10398000DEB79C838B831A8219828B819C8100977E
:1039900069F40E94491C9A838983E981FA818481B0
:1039A0009581FC01808191819C838B8389819A819F
:1039B0000F900F900F900F90CF91DF910895DF93AC
:1039C000CF9300D0CDB7DEB79A838983E981FA819E
:1039D000868197810E94882C0F900F90CF91DF9164
:1039E0000895DF93CF9300D0CDB7DEB79A83898354
:1039F000E981FA81848195810197E981FA81958332
:103A00008483E981FA8184819581009741F48981D9
:103A10009A810E94DF1C89819A810E94356D0F90E6
:103A20000F90CF91DF910895DF93CF9300D0CDB762
:103A3000DEB781E090E00E94D4249A838983898153
:103A40009A810F900F90CF91DF9108950F931F935C
:103A5000DF93CF9300D000D0CDB7DEB79C838B83AC
:103A60008B819C81FC0136968081918160E070E0C1
:103A70000E94F44BFC0184819581FC01808191813D
:103A8000FC01389680819181FC013C96848195816E
:103A90008C018B819C81FC0136968081918160E054
:103AA00070E00E94F44BFC0184819581FC018081CF
:103AB0009181F80109959A83898389819A810F9070
:103AC0000F900F900F90CF91DF911F910F9108955C
:103AD000DF93CF93CDB7DEB70E94141D90930B03F5
:103AE00080930A03CF91DF910895DF93CF93CDB7F1
:103AF000DEB780910A0390910B030E94882CCF912E
:103B0000DF910895DF93CF93CDB7DEB7CF91DF91EB
:103B10000895DF93CF93CDB7DEB7CF91DF910895AE
:103B2000DF93CF9300D0CDB7DEB79A8389838981A5
:103B30009A81009731F48AE090E00E94886C9A8321
:103B4000898389819A81009791F0E981FA811382B2
:103B50001282E981FA8115821482E981FA8186E66E
:103B600092E091838083E981FA81178216828981AC
:103B70009A810F900F90CF91DF910895DF93CF93AB
:103B800000D000D000D0CDB7DEB780E090E00E943A
:103B9000901D9A838983E981FA8162817381898189
:103BA0009A819C012C5F3F4F41EF5CE1E981FA81F2
:103BB000CB01B9019F010E94C9471B821C821D8253
:103BC0001E829C838B832B813C814D815E818BE0A7
:103BD00090E0BA01A9010E94992426960FB6F894A4
:103BE000DEBF0FBECDBFCF91DF9108950F931F931E
:103BF000DF93CF93CDB7DEB728970FB6F894DEBF2B
:103C00000FBECDBF9E838D8378876F831C821B82FE
:103C10008D819E81009769F40E94BE1D9C838B83D9
:103C2000EB81FC8184819581FC01808191819E835F
:103C30008D838F81988560E070E00E94F44B9A83B9
:103C400089838D819E81FC013696808191810E94BD
:103C5000882C8D819E818C010A5F1F4F89819A81FA
:103C60000E94CB28F8019183808389819A810E94E8
:103C7000882C8B819C8128960FB6F894DEBF0FBEEE
:103C8000CDBFCF91DF911F910F910895DF93CF9317
:103C900000D000D0CDB7DEB79C838B831A82198207
:103CA0008B819C81009769F40E94BE1D9A83898351
:103CB000E981FA8184819581FC01808191819C83D5
:103CC0008B8389819A810F900F900F900F90CF91E5
:103CD000DF910895DF93CF9300D0CDB7DEB79A83FD
:103CE0008983E981FA81868197810E94882C0F90CF
:103CF0000F90CF91DF910895DF93CF9300D0CDB790
:103D0000DEB79A838983E981FA818481958101975D
:103D1000E981FA8195838483E981FA81848195819F
:103D2000009741F489819A810E946A1E89819A8153
:103D30000E94356D0F900F90CF91DF910895DF9322
:103D4000CF9300D0CDB7DEB781E090E00E94D424BD
:103D50009A83898389819A810F900F90CF91DF9107
:103D600008950F931F93DF93CF9300D000D0CDB76A
:103D7000DEB79A8389837C836B8389819A81FC0176
:103D800036968081918160E070E00E94F44BFC01E6
:103D900084819581FC0180819181FC01389680812C
:103DA0009181FC013696848195818C0189819A816B
:103DB000FC0136968081918160E070E00E94F44BB6
:103DC000FC0184819581FC01808191812B813C8162
:103DD000B901F80109950F900F900F900F90CF91B6
:103DE000DF911F910F910895DF93CF93CDB7DEB789
:103DF0000E949F1E90930D0380930C03CF91DF913F
:103E00000895DF93CF93CDB7DEB780910C039091E7
:103E10000D030E94882CCF91DF910895DF93CF93FB
:103E2000CDB7DEB7CF91DF910895DF93CF93CDB7B4
:103E3000DEB7CF91DF910895DF93CF9300D0CDB758
:103E4000DEB79A83898389819A81009731F48AE069
:103E500090E00E94886C9A83898389819A81009777
:103E6000A1F0E981FA818AE090E093838283E9817D
:103E7000FA8115821482E981FA8188E792E09183C0
:103E80008083E981FA811782168289819A810F9055
:103E90000F90CF91DF910895DF93CF9300D000D0A2
:103EA00000D0CDB7DEB780E090E00E941C1F9A835F
:103EB0008983E981FA816281738189819A819C0178
:103EC0002C5F3F4F4CE75EE1E981FA81CB01B901FC
:103ED0009F010E94C9471B821C821D821E829C83F7
:103EE0008B832B813C814D815E818BE090E0BA0118
:103EF000A9010E94992426960FB6F894DEBF0FBE42
:103F0000CDBFCF91DF9108950F931F93DF93CF9390
:103F1000CDB7DEB728970FB6F894DEBF0FBECDBF82
:103F20009E838D8378876F831C821B828D819E8107
:103F3000009769F40E944C1F9C838B83EB81FC816A
:103F400084819581FC01808191819E838D838F8105
:103F5000988560E070E00E94F44B9A8389838D819C
:103F60009E81FC013696808191810E94882C8D81F2
:103F70009E818C010A5F1F4F89819A810E94CB2804
:103F8000F8019183808389819A810E94882C8B819A
:103F90009C8128960FB6F894DEBF0FBECDBFCF919F
:103FA000DF911F910F910895DF93CF9300D000D040
:103FB000CDB7DEB79C838B831A8219828B819C815B
:103FC000009769F40E944C1F9A838983E981FA81E2
:103FD00084819581FC01808191819C838B8389817F
:103FE0009A810F900F900F900F90CF91DF910895CD
:103FF000DF93CF9300D0CDB7DEB79A838983E98171
:10400000FA81868597850E94882C0F900F90CF911A
:10401000DF910895DF93CF9300D0CDB7DEB79A83B9
:104020008983E981FA81848595850197E981FA81FF
:1040300095878487E981FA8184859585009741F485
:1040400089819A810E94F81F89819A810E94356D29
:104050000F900F90CF91DF910895DF93CF9300D011
:1040600000D0CDB7DEB79C838B8300D000D0EDB7F6
:10407000FEB7319611821082138212820E94B24DD5
:104080000F900F900F900F909A83898389819A8166
:104090000F900F900F900F90CF91DF9108950F9395
:1040A0001F93DF93CF9300D000D000D0CDB7DEB701
:1040B0009C838B837E836D838D819E8160E070E025
:1040C0000E94F44B9A8389838B819C81FC013E96EC
:1040D000808191810E94882C8B819C818C01025F60
:1040E0001F4F89819A810E94CB28F8019183808398
:1040F00089819A810E94882C26960FB6F894DEBF9B
:104100000FBECDBFCF91DF911F910F910895DF9327
:10411000CF9300D000D0CDB7DEB79C838B838B814B
:104120009C81FC013E968081918160E070E00E945C
:10413000F44B60E070E00E94F44B9A83898389819C
:104140009A810F900F900F900F90CF91DF9108956B
:10415000DF93CF93CDB7DEB7CF91DF910895DF9393
:10416000CF93CDB7DEB7CF91DF910895DF93CF9393
:10417000CDB7DEB7CF91DF910895DF93CF93CDB761
:10418000DEB7CF91DF910895DF93CF9300D000D0B9
:10419000CDB7DEB79C838B838B819C819A83898387
:1041A00089819A810E9487200F900F900F900F9025
:1041B000CF91DF910895DF93CF9300D0CDB7DEB7D5
:1041C0009A83898389819A81009731F482E190E012
:1041D0000E94886C9A83898389819A810097C9F1AA
:1041E00089819A810E94921A8091120390911303FF
:1041F000009789F4E981FA81208131818EE093E092
:10420000B90142E150E00E94716E84EC90E290931B
:10421000190380931803E981FA818EE093E091837A
:104220008083E981FA8185E090E093878287E98144
:10423000FA8115861486E981FA818AE892E09187ED
:10424000808789819A810E942D20E981FA81978750
:10425000868789819A810F900F90CF91DF91089581
:10426000DF93CF9300D000D000D0CDB7DEB780E091
:1042700090E00E94DB209A838983E981FA8162853C
:10428000738589819A819C01245F3F4F4AE050E207
:10429000E981FA81CB01B9019F010E94C9471B82C4
:1042A0001C821D821E829C838B832B813C814D81CD
:1042B0005E818BE090E0BA01A9010E9499242696C4
:1042C0000FB6F894DEBF0FBECDBFCF91DF9108953A
:1042D000DF93CF9300D000D000D0CDB7DEB79C8362
:1042E0008B837E836D831A8219828B819C810097D8
:1042F00069F40E9430219A838983E981FA8184815B
:104300009581FC01808191819C838B838B819C8131
:10431000FC01389680819181FC01369684819581DB
:10432000FC018B819C812D813E81B9010995898198
:104330009A8126960FB6F894DEBF0FBECDBFCF91FF
:10434000DF910895DF93CF9300D000D0CDB7DEB7D3
:104350009C838B831A8219828B819C81009769F4DC
:104360000E9430219A838983E981FA818481958131
:10437000FC01808191819C838B8389819A810F903C
:104380000F900F900F90CF91DF910895DF93CF930F
:1043900000D0CDB7DEB79A8389830F900F90CF916D
:1043A000DF910895DF93CF9300D0CDB7DEB79A8326
:1043B0008983E981FA81848195810197E981FA8174
:1043C00095838483E981FA8184819581009741F402
:1043D00089819A810E94C62189819A810E94356DC6
:1043E0000F900F90CF91DF910895DF93CF9300D07E
:1043F000CDB7DEB71A82198289819A810F900F900A
:10440000CF91DF910895DF93CF9300D0CDB7DEB782
:1044100080E090E00E9423189A83898389819A81A1
:104420000F900F90CF91DF910895DF93CF9300D03D
:10443000CDB7DEB782E090E00E94D4249A838983CE
:1044400089819A810F900F90CF91DF910895DF932A
:10445000CF93CDB7DEB70E941522909321038093AE
:104460002003CF91DF910895DF93CF93CDB7DEB7CF
:1044700080912003909121030E94882CCF91DF919D
:104480000895DF93CF93CDB7DEB70E9403229093B8
:104490002303809322030E94F521909325038093A8
:1044A0002403CF91DF910895DF93CF93CDB7DEB78B
:1044B00080912203909123030E94882C80912403F1
:1044C000909125030E94882CCF91DF910895DF936E
:1044D000CF9300D0CDB7DEB79A83898389819A8143
:1044E000009731F488E090E00E94886C9A83898379
:1044F00089819A81009781F0E981FA8187E090E0D3
:1045000093838283E981FA8115821482E981FA8199
:1045100082EA92E09183808389819A810F900F9043
:10452000CF91DF910895DF93CF9300D000D000D0DA
:10453000CDB7DEB780E090E00E9467229A8389833E
:10454000E981FA816281738189819A819C012C5F62
:104550003F4F42ED51E2E981FA81CB01B9019F0160
:104560000E94C9471B821C821D821E829C838B83F2
:104570002B813C814D815E818BE090E0BA01A901E5
:104580000E94992426960FB6F894DEBF0FBECDBFC9
:10459000CF91DF9108950F931F93DF93CF93CDB702
:1045A000DEB72C970FB6F894DEBF0FBECDBF9C8749
:1045B0008B871A8619868B859C85009769F40E94E3
:1045C00093229A878987E985FA8584819581FC0100
:1045D000808191819C878B87809122039091230316
:1045E00060E070E00E94F44BFC0184819581FC0145
:1045F00080819181FC013E968081918160E070E034
:104600000E94F44B9C0180E090E0B9010E94841F5D
:1046100098878F83809122039091230360E070E05C
:104620000E94F44BFC0184819581FC018081918181
:10463000FC013C968081918160E070E00E94F44B27
:104640009C0180E090E0B9010E94841F9E838D83CD
:10465000809122039091230360E070E00E94F44B6C
:10466000FC0184819581FC0180819181FC01389657
:104670008081918160E070E00E94F44B9C0180E0B9
:1046800090E0B9010E94F61D9C838B8380912203E8
:104690009091230360E070E00E94F44BFC01848160
:1046A0009581FC0180819181FC0136968081918108
:1046B00060E070E00E94F44B9C0180E090E0B90162
:1046C0000E94F61D9A8389832F8138854D815E81F2
:1046D000EB81FC81A981BA8180E090E0B9019F0162
:1046E0008D010E94A10A909325038093240389855C
:1046F0009A852C960FB6F894DEBF0FBECDBFCF9132
:10470000DF911F910F910895DF93CF9300D0CDB724
:10471000DEB79A8389830F900F90CF91DF91089530
:10472000DF93CF9300D0CDB7DEB79A838983E98139
:10473000FA81848195810197E981FA819583848347
:10474000E981FA8184819581009741F489819A8178
:104750000E94842389819A810E94356D0F900F9069
:10476000CF91DF910895DF93CF9300D0CDB7DEB71F
:1047700080E090E00E94D4249A83898389819A8181
:104780000F900F90CF91DF910895DF93CF9300D0DA
:10479000CDB7DEB79A838983E981FA8180819181DF
:1047A000FC01369684819581FC0189819A81099565
:1047B0000F900F90CF91DF910895DF93CF9300D0AA
:1047C000CDB7DEB79A8389830F900F90CF91DF9199
:1047D0000895DF93CF93CDB7DEB70E94B3239093B4
:1047E000270380932603CF91DF910895DF93CF9322
:1047F000CDB7DEB780912603909127030E94882CC5
:10480000CF91DF910895DF93CF93CDB7DEB7CF91EE
:10481000DF910895DF93CF93CDB7DEB7CF91DF91CE
:104820000895DF93CF9300D0CDB7DEB79A83898305
:1048300089819A81009731F488E090E00E94886C29
:104840009A83898389819A81009781F0E981FA812D
:1048500088E090E093838283E981FA811582148253
:10486000E981FA8188EA92E09183808389819A8143
:104870000F900F90CF91DF910895DF93CF9300D0E9
:1048800000D000D0CDB7DEB780E090E00E941124C8
:104890009A838983E981FA816281738189819A810E
:1048A0009C012C5F3F4F40E953E2E981FA81CB0143
:1048B000B9019F010E94C9471B821C821D821E8272
:1048C0009C838B832B813C814D815E818BE090E0CA
:1048D000BA01A9010E94992426960FB6F894DEBF6A
:1048E0000FBECDBFCF91DF910895DF93CF9300D05E
:1048F00000D0CDB7DEB79C838B831A8219828B815F
:104900009C81009769F40E943D249A838983E98100
:10491000FA8184819581FC01808191819C838B83C4
:1049200089819A810F900F900F900F90CF91DF9116
:104930000895DF93CF93CDB7DEB728970FB6F894DD
:10494000DEBF0FBECDBF9C838B834D835E836F83A1
:10495000788788E090E00E94886C9A8389838981B7
:104960009A81009711F40E94696EE981FA818B8126
:104970009C8191838083E981FA818D819E81AF81C1
:10498000B88584839583A683B783E981FA811382EE
:10499000128289819A8128960FB6F894DEBF0FBEE5
:1049A000CDBFCF91DF910895DF93CF9300D000D09A
:1049B00000D0CDB7DEB79E838D8319821A821B8209
:1049C0001C828D819E819A83898329813A814B81C2
:1049D0005C8180E090E0BA01A9010E9499242696AA
:1049E0000FB6F894DEBF0FBECDBFCF91DF91089513
:1049F000DF93CF9300D000D00F92CDB7DEB78D8379
:104A000019821A821B821C828D81898329813A81B5
:104A10004B815C8183E090E0BA01A9010E94992456
:104A20000F900F900F900F900F90CF91DF910895FE
:104A3000DF93CF93CDB7DEB728970FB6F894DEBFDC
:104A40000FBECDBF6D837E838F83988719821A82B4
:104A50001B821C828D819E81AF81B88589839A8358
:104A6000AB83BC8329813A814B815C8184E090E0F7
:104A7000BA01A9010E94992428960FB6F894DEBFC6
:104A80000FBECDBFCF91DF910895DF93CF9300D0BC
:104A900000D00F92CDB7DEB78D8319821A821B82A8
:104AA0001C828D81898329813A814B815C8186E0DA
:104AB00090E0BA01A9010E9499240F900F900F90E5
:104AC0000F900F90CF91DF910895DF93CF9300D097
:104AD00000D000D0CDB7DEB79E838D8319821A82B5
:104AE0001B821C828D819E819A83898329813A81D0
:104AF0004B815C8189E090E0BA01A9010E94992470
:104B000026960FB6F894DEBF0FBECDBFCF91DF91D2
:104B10000895DF93CF93CDB7DEB72F970FB6F894F4
:104B2000DEBF0FBECDBF9E878D878D859E850E947F
:104B3000086998878F838F8198859E838D8385E010
:104B400095E19C838B8311C08B819C819C01220FFA
:104B5000331F220F331F8B819C81280F391F8981BE
:104B60009A81820F931F9C838B83EF81F8858081CC
:104B7000992787FD90959A8389831F8689819A81D9
:104B8000009711F081E08F878F8198850196988733
:104B90008F838F858823C1F68D819E810E94356D1C
:104BA00019861A861B861C868B819C819A87898729
:104BB00029853A854B855C858AE090E0BA01A90198
:104BC0000E9499242F960FB6F894DEBF0FBECDBF7A
:104BD000CF91DF910895DF93CF93CDB7DEB72C97B8
:104BE0000FB6F894DEBF0FBECDBF98878F837A874C
:104BF000698784E090E00E94886C9A838983898128
:104C00009A81009711F40E94696E8F819885E981DD
:104C1000FA81938382838F819885009729F08F8111
:104C200098859C878B8704C081E090E09C878B8768
:104C30008B859C8562E070E00E946C6CE981FA8152
:104C400091838083E981FA8180819181009711F4B9
:104C50000E94696E1B821C821D821E8289819A813C
:104C60009C838B8389859A852B813C814D815E81D4
:104C7000BA01A9010E9499242C960FB6F894DEBFC0
:104C80000FBECDBFCF91DF910895DF93CF93CDB706
:104C9000DEB72C970FB6F894DEBF0FBECDBF988756
:104CA0008F837A8769875C874B8784E090E00E94D6
:104CB000886C9A83898389819A81009711F40E9474
:104CC000696E8F819885E981FA81938382838985D2
:104CD0009A8562E070E00E946C6CE981FA819183B0
:104CE0008083E981FA8180819181009711F40E948B
:104CF000696E1B821C821D821E8289819A819C831F
:104D00008B838B859C852B813C814D815E81BA0193
:104D1000A9010E9499242C960FB6F894DEBF0FBE0D
:104D2000CDBFCF91DF910895DF93CF93CDB7DEB79D
:104D30002E970FB6F894DEBF0FBECDBF98878F8336
:104D40007A8769875C874B8784E090E00E94886C53
:104D50009A83898389819A81009711F40E94696EF0
:104D60008F819885E981FA81938382838F819885E9
:104D7000009729F08F8198859E878D8704C081E0F8
:104D800090E09E878D878D859E8562E070E00E9411
:104D90006C6CE981FA8191838083E981FA81808159
:104DA0009181009711F40E94696E1B821C821D8202
:104DB0001E8289819A819C838B8389859A852B8128
:104DC0003C814D815E81EB85FC85BA01A9019F0183
:104DD0000E94714A2E960FB6F894DEBF0FBECDBF6B
:104DE000CF91DF910895DF93CF93CDB7DEB72E97A4
:104DF0000FB6F894DEBF0FBECDBF98878F837A873A
:104E000069875C874B873E872D8784E090E00E940E
:104E1000886C9A83898389819A81009711F40E9412
:104E2000696E8F819885E981FA8193838283898570
:104E30009A8562E070E00E946C6CE981FA8191834E
:104E40008083E981FA8180819181009711F40E9429
:104E5000696E1B821C821D821E8289819A819C83BD
:104E60008B838B859C852B813C814D815E81ED857B
:104E7000FE85BA01A9019F010E94714A2E960FB6C4
:104E8000F894DEBF0FBECDBFCF91DF9108950F9391
:104E90001F93DF93CF93CDB7DEB72C970FB6F8945F
:104EA000DEBF0FBECDBF98878F837A8769875C8707
:104EB0004B878F81988529853A85B9010E94EB251A
:104EC0009C838B83EB81FC81848195819A83898388
:104ED0001E821D8221C0E981FA81208131818D816C
:104EE0009E81880F991F8901080F191F8D819E814E
:104EF0009C01220F331F8B859C85FC01E20FF31F61
:104F0000808191810E94CB28F801918380838D81DB
:104F10009E8101969E838D832D813E818F81988510
:104F200028173907C0F28B819C812C960FB6F89414
:104F3000DEBF0FBECDBFCF91DF911F910F910895BE
:104F40000F931F93DF93CF93CDB7DEB72E970FB696
:104F5000F894DEBF0FBECDBF98878F837A876987AD
:104F60005C874B873E872D878F81988529853A8579
:104F70004B855C85B9010E9445269C838B83EB8120
:104F8000FC81848195819A8389831E821D8221C040
:104F9000E981FA81208131818D819E81880F991F5D
:104FA0008901080F191F8D819E819C01220F331FDB
:104FB0008D859E85FC01E20FF31F808191810E9407
:104FC000CB28F801918380838D819E8101969E83F9
:104FD0008D832D813E818F81988528173907C0F2F6
:104FE0008B819C812E960FB6F894DEBF0FBECDBF8D
:104FF000CF91DF911F910F9108950F931F93DF932E
:10500000CF93CDB7DEB72E970FB6F894DEBF0FBEA5
:10501000CDBF98878F837A8769875C874B873E8768
:105020002D878F81988529853A854D855E85B901C3
:105030000E9494269C838B83EB81FC8184819581E3
:105040009A8389831E821D8221C0E981FA81208191
:1050500031818D819E81880F991F8901080F191F49
:105060008D819E819C01220F331F8B859C85FC01C5
:10507000E20FF31F808191810E94CB28F801918378
:1050800080838D819E8101969E838D832D813E81BB
:105090008F81988528173907C0F28B819C812E96C5
:1050A0000FB6F894DEBF0FBECDBFCF91DF911F9139
:1050B0000F910895DF93CF9300D000D0CDB7DEB726
:1050C0009C838B83EB81FC81808191818830910569
:1050D00049F0EB81FC81808191818730910511F04D
:1050E0000E94696EEB81FC81848195819A8389831A
:1050F000E981FA81828193810F900F900F900F9038
:10510000CF91DF910895DF93CF9300D000D000D0EE
:10511000CDB7DEB79C838B837E836D83EB81FC816F
:10512000808191818830910549F0EB81FC818081FB
:1051300091818730910511F00E94696EEB81FC81AD
:10514000848195819A8389838D819E8199234CF0F6
:10515000E981FA81228133818D819E8182179307B3
:1051600014F00E94696EE981FA81208131818D817C
:105170009E81880F991FF901E80FF91F80819181A5
:105180000E94CB2826960FB6F894DEBF0FBECDBF87
:10519000CF91DF9108950F931F93DF93CF93CDB7F6
:1051A000DEB766970FB6F894DEBF0FBECDBF9A8B01
:1051B000898B89899A89009719F41E8A1D8A22C1D0
:1051C000E989FA8980819181E989FA892481358187
:1051D00046815781BA01A9010E949924988B8F8733
:1051E000EF85F889808191819C8B8B8BEB89FC8981
:1051F000E830F105C9F08B899C898930910538F434
:10520000EB89FC89E730F10508F4F8C074C08B899C
:105210009C898B30910508F4F1C0EB89FC89EB3057
:10522000F10509F4CFC0EAC0EF85F8898481958142
:105230009C878B8784E090E00E94886C9A8789879E
:1052400089859A85009711F40E94696EEB85FC852B
:1052500080819181A281B381E985FA8580839183E0
:10526000A283B383E985FA8582819381880F991F90
:105270000E94886CE985FA8591838083E985FA85A7
:1052800080819181009711F40E94696E1E861D86AF
:1052900022C0E985FA85208131818D859E85880F20
:1052A000991F8901080F191FEB85FC852081318129
:1052B0008D859E85880F991FF901E80FF91F808160
:1052C00091810E94CB28F801918380838D859E85F2
:1052D00001969E878D87EB85FC85228133818D85A4
:1052E0009E8582179307ACF2EF85F88989859A85A8
:1052F0009583848383C0EF85F889848195819E831B
:105300008D8384E090E00E94886C9C838B838B81EA
:105310009C81009711F40E94696EED81FE8180816D
:105320009181A281B381EB81FC8180839183A283EF
:10533000B383EB81FC8182819381880F991F0E9446
:10534000886CEB81FC8191838083EB81FC8180817F
:105350009181009711F40E94696E18861F8222C005
:10536000EB81FC81208131818F819885880F991F85
:105370008901080F191FED81FE81208131818F8104
:105380009885880F991FF901E80FF91F8081918195
:105390000E94CB28F801918380838F8198850196A4
:1053A00098878F83ED81FE81228133818F8198855B
:1053B00082179307ACF2EF85F8898B819C819583E6
:1053C00084831CC0EF85F889848195819A838983C1
:1053D000E981FA8182819381E981FA816481758111
:1053E000E981FA8146815781E981FA812081318101
:1053F0000E94C947EF85F889958384838F859889B2
:105400009E8B8D8B8D899E8966960FB6F894DEBF34
:105410000FBECDBFCF91DF911F910F910895EF92F5
:10542000FF920F931F93DF93CF93CDB7DEB72E97E5
:105430000FB6F894DEBF0FBECDBF998788877B87F4
:105440006A87888599850E94B9318823E9F08A8521
:105450009B850E94B9318823B9F0888599850E947F
:10546000D1327B018C018A859B850E94D1329B01C0
:10547000AC011E86C801B7010E94206F882309F085
:10548000DBC081E08E87D8C0E885F9852081318135
:10549000EA85FB85808191812817390711F01E86E6
:1054A000CBC0E885F985808191819D878C878C852B
:1054B0009D858630910509F442C08C859D85873095
:1054C000910560F48C859D858330910559F18C851B
:1054D0009D858430910508F04FC03EC08C859D8528
:1054E0008930910509F45FC08C859D858A309105CE
:1054F00068F48C859D858730910509F46CC08C8596
:105500009D858830910509F45DC095C08C859D8589
:105510008A30910509F18C859D858B30910509F4C0
:105520006FC089C0E885F9859481EA85FB8584810F
:105530001E86981709F080C091E09E877DC0E8859F
:10554000F9859481EA85FB8584811E86981709F088
:1055500073C081E08E8770C0E885F985248135812C
:10556000EA85FB85848195811E862817390709F015
:1055700063C091E09E8760C0E885F985848195814C
:10558000A681B781EA85FB852481358146815781D3
:105590001E86BC01CD010E94206F882309F04CC0FB
:1055A00081E08E8749C0E885F98524813581EA85C7
:1055B000FB85848195811E8628173907E9F591E0DE
:1055C0009E873AC0888599852A853B85B9010E94C6
:1055D0002A2B8E8731C0888599852A853B85B9011C
:1055E0000E94B1639F838E838E819F810E945F336F
:1055F0008D838E819F810E94882C8D818E871CC017
:10560000E885F985848195819C838B83EA85FB8578
:10561000848195819A838983EB81FC81208131810A
:10562000E981FA81808191811E862817390721F44A
:1056300091E09E8701C01E868E852E960FB6F89447
:10564000DEBF0FBECDBFCF91DF911F910F91FF90B5
:10565000EF9008950F931F93DF93CF93CDB7DEB7ED
:105660002C970FB6F894DEBF0FBECDBF9987888701
:105670007B876A87E885F985848195819D838C8302
:10568000EA85FB85848195819B838A83EC81FD81FA
:1056900022813381EA81FB81828193812817390736
:1056A00011F01C863FC081E089831F821E822FC0BB
:1056B0008981082F10E0EC81FD81208131818E816C
:1056C0009F81880F991FF901E80FF91F40815181CF
:1056D000EA81FB81208131818E819F81880F991F12
:1056E000F901E80FF91F20813181CA01B9010E9437
:1056F0000F2A882F90E0802391231982009711F0C0
:1057000081E089838E819F8101969F838E83EC81C6
:10571000FD81228133818E819F818217930744F21C
:1057200089818C878C852C960FB6F894DEBF0FBECE
:10573000CDBFCF91DF911F910F910895DF93CF934C
:10574000CDB7DEB72E970FB6F894DEBF0FBECDBF34
:105750009C878B878B859C85009709F4D0C0EB854F
:10576000FC85808191819E878D878D859E8588307F
:105770009105C9F08D859E858930910538F48D8518
:105780009E858730910508F4B6C051C08D859E85F1
:105790008B30910508F4AFC08D859E858B309105C7
:1057A00009F489C0A8C0EB85FC8584819581988720
:1057B0008F831A86198623C0EF81F8852081318175
:1057C00089859A85880F991FF901E80FF91F808153
:1057D0009181009779F0EF81F88520813181898569
:1057E0009A85880F991FF901E80FF91F808191812F
:1057F0000E949E2B89859A8501969A878987EF81D9
:10580000F8852281338189859A8582179307A4F2CE
:10581000EF81F885808191810E94356D8F81988517
:105820000E94356DEB85FC851582148264C0EB8582
:10583000FC85848195819C838B831E821D8223C07D
:10584000EB81FC81208131818D819E81880F991FA0
:10585000F901E80FF91F80819181009779F0EB81C0
:10586000FC81208131818D819E81880F991FF901F2
:10587000E80FF91F808191810E949E2B8D819E816E
:1058800001969E838D83EB81FC81228133818D8102
:105890009E8182179307A4F2EB81FC818081918124
:1058A0000E94356D8B819C810E94356DEB85FC8556
:1058B0001582148220C0EB85FC85848195819A83B2
:1058C0008983E981FA8126813781E981FA818081A2
:1058D0009181F9010995E981FA8111821082E981AA
:1058E000FA811782168289819A810E94356DEB8533
:1058F000FC85158214828B859C850E94356D2E96C1
:105900000FB6F894DEBF0FBECDBFCF91DF910895E3
:10591000DF93CF93CDB7DEB760970FB6F894DEBFB5
:105920000FBECDBF9E878D878D859E85009709F41C
:10593000E2C0ED85FE8580819181988B8F878F8570
:10594000988988309105C9F08F85988989309105AB
:1059500038F48F8598898730910508F4B6C051C016
:105960008F8598898B30910508F4AFC08F85988911
:105970008B30910509F489C0A8C0ED85FE8584812E
:10598000958198878F831A86198623C0EF81F885C1
:105990002081318189859A85880F991FF901E80F47
:1059A000F91F80819181009779F0EF81F88520813E
:1059B000318189859A85880F991FF901E80FF91FB0
:1059C000808191810E94882C89859A8501969A8789
:1059D0008987EF81F8852281338189859A858217AD
:1059E0009307A4F2EF81F885808191810E94356D43
:1059F0008F8198850E94356DED85FE851582148214
:105A000064C0ED85FE85848195819C838B831E8295
:105A10001D8223C0EB81FC81208131818D819E819B
:105A2000880F991FF901E80FF91F80819181009774
:105A300079F0EB81FC81208131818D819E81880FFD
:105A4000991FF901E80FF91F808191810E94882C2C
:105A50008D819E8101969E838D83EB81FC812281C5
:105A600033818D819E8182179307A4F2EB81FC81A3
:105A7000808191810E94356D8B819C810E94356D62
:105A8000ED85FE851582148220C0ED85FE8584811A
:105A900095819A838983E981FA8126813781E98119
:105AA000FA8180819181F9010995E981FA81118258
:105AB0001082E981FA811782168289819A810E9477
:105AC000356DED85FE85158214828D859E850E943B
:105AD0009148ED85FE85828193819C878B878D859A
