:100000000C94B3000C94D2000C94D2000C94D20047
:100010000C94D2000C94D2000C94D2000C94D20018
:100020000C94D2000C94D2000C94D2000C94D20008
:100030000C94D2000C94D2000C94D2000C94D200F8
:100040000C94D2000C94D2000C94D2000C94D200E8
:100050000C94AE690C94016A0C94D2000C94D200FA
:100060000C94D2000C94D2000C94D2000C94D200C8
:100070000C94246B0C94776B0C94D2000C94D200EB
:100080000C94D2000C94D2000C94D2000763423638
:10009000B79BD8A71A39685618AEBAAB558C1D3C19
:1000A000B7CC5763BD6DEDFD753EF6177231BF00DD
:1000B0000000803F08000000BE922449123EABAA17
:1000C000AA2ABECDCCCC4C3E00000080BEABAAAA72
:1000D000AA3E00000000BF000000803F00000000BA
:1000E00000084178D3BB4387D1133D190E3CC3BDF3
:1000F0004282AD2B3E68EC8276BED98FE1A93E4CA0
:1001000080EFFFBE01C4FF7F3F000000000053747A
:1001100072696E672073746F72656420696E204621
:100120004C4153480A00427566666572206F7665D9
:1001300072666C6F77206572726F723A200055415B
:100140005254204F76657272756E204572726F72CE
:100150003A200055415254204672616D6520457227
:10016000726F723A200011241FBECFEFD0E4DEBFC1
:10017000CDBF12E0A0E0B1E0EEEEF5EE00E00BBF87
:1001800002C007900D92A03CB107D9F714E0A0EC93
:10019000B2E001C01D92A030B107E1F70E948F01CB
:1001A0000C94A06E0C940000DF93CF93CDB7DEB714
:1001B000ECE7F0E080E48083EAE7F0E086E8808323
:1001C000CF91DF910895DF93CF930F92CDB7DEB734
:1001D0008983898187708983ACE7B0E0ECE7F0E040
:1001E0008081982F987F8981892B8C93AAE7B0E032
:1001F000EAE7F0E0808180648C93EAE7F0E08081B8
:10020000882F90E0807190700097B9F3AAE7B0E072
:10021000EAE7F0E0808180618C93E8E7F0E080819C
:1002200091810F90CF91DF910895DF93CF93CDB758
:10023000DEB7CF91DF910895DF93CF93CDB7DEB7CF
:100240002B970FB6F894DEBF0FBECDBF86E890E0C7
:100250009A83898389E190E00E944A6A789480E0D9
:1002600091E00E94DD6A8EE091E00E94FB6A898144
:100270009A819E012B5F3F4FB9014AE050E00E94F6
:10028000CC6ECE0105960E94DD6A8DE00E94B36AB5
:100290002B960FB6F894DEBF0FBECDBFCF91DF9186
:1002A0000895DF93CF93CDB7DEB729970FB6F894B3
:1002B000DEBF0FBECDBF0E947F6A9A83898389818A
:1002C0009A8180709170009709F589819A81807078
:1002D0009071009721F083E591E00E94FB6A89818B
:1002E0009A8180709870009721F08EE391E00E94CF
:1002F000FB6A89819A8180709270009721F086E272
:1003000091E00E94FB6A89810E94B36A29960FB628
:10031000F894DEBF0FBECDBFCF91DF910895CF928D
:10032000DF92EF92FF920F931F93DF93CF93CDB79E
:10033000DEB7C459D0400FB6F894DEBF0FBECDBFB4
:10034000EAE2F0E08FEF8083EBE2F0E010820E94BF
:10035000D4000E941C01CE014F96C257DF4F9983F3
:100360008883CE58D040E7E1F1E0C057DF4FF983F2
:10037000E883C059D040FAE0CE56DF4FF883C25927
:10038000D040C057DF4FE881F981C059D04000808C
:10039000C057DF4F88819981C059D0400196C0571E
:1003A000DF4F99838883C059D040C257DF4FE8811F
:1003B000F981CE58D0400082C257DF4F88819981A1
:1003C000CE58D0400196C257DF4F99838883CE58CC
:1003D000D040CE56DF4F9881C259D0409150CE5672
:1003E000DF4F9883C259D040CE56DF4FE881C259C3
:1003F000D040EE2331F680E090E0A0E0B0E08093C2
:10040000CE039093CF03A093D003B093D10380E0A9
:1004100090E0A0E0B0E08093D2039093D303A09348
:10042000D403B093D50380E090E0A0EAB0E48093D9
:10043000CA039093CB03A093CC03B093CD0380E089
:1004400090E0A0E0B0E08093D6039093D703A09310
:10045000D803B093D90380E090E0A0E0B0E08093AF
:10046000DE039093DF03A093E003B093E10380E009
:1004700090E0A0E8BFE38093E2039093E303A093AE
:10048000E403B093E50380E090E0A0E8B0E480935B
:10049000E6039093E703A093E803B093E90381E2B6
:1004A00091E02DE231E0E4E5F1E0DE015F9661E00C
:1004B00070E0A9019F018D01EE24FF24E394CC2478
:1004C000DD24C3940E94AD0B9E8F8D8F8D8D9E8DEC
:1004D000009791F481E090E0CC56DF4F0FB6F8948E
:1004E000DEBF0FBECDBFCF91DF911F910F91FF9067
:1004F000EF90DF90CF90089580E090E0A0E0B0E032
:10050000898F9A8FAB8FBC8F8AE097EDA3E2BCE313
:100510008D8B9E8BAF8BB88F188A1F8680E00E94D0
:10052000E300CC01A0E0B0E0BC01CD010E94EF6F80
:10053000DC01CB018093CE039093CF03A093D00333
:10054000B093D10381E00E94E300CC01A0E0B0E0D1
:10055000BC01CD010E94EF6FDC01CB018093D2037F
:100560009093D303A093D403B093D503298D3A8DF0
:100570004B8D5C8DED88FE880F89188D80E090E0B2
:10058000BA01A90198018701EE24FF240E944010BE
:10059000698D7A8D8B8D9C8D2D893E894F89588DE3
:1005A0000E94EE6EDC01CB01898F9A8FAB8FBC8FDE
:1005B0008091D6039091D703A091D803B091D9032D
:1005C0001C8A1B8ABC01CD0120E030E040E850E4E9
:1005D0000E94F470882324F081E090E09C8B8B8B48
:1005E0008091DE039091DF03A091E003B091E103DD
:1005F000C357DF4F1882CD58D040BC01CD0120E059
:1006000030E040E850EC0E94526F181634F0F1E0F0
:10061000C357DF4FF883CD58D04081E0C357DF4F39
:100620009881CD58D0408927882F90E09A8B898B6C
:100630008B899C89009779F0ABE2B0E0EBE2F0E0C7
:100640008081877F8C93ABE2B0E0EBE2F0E08081C9
:100650008F7E8C930EC0ABE2B0E0EBE2F0E08081E5
:1006600088608C93ABE2B0E0EBE2F0E080818061E7
:100670008C9389899A89009779F0ABE2B0E0EBE23C
:10068000F0E080818B7F8C93ABE2B0E0EBE2F0E0B6
:1006900080818F7D8C930EC0ABE2B0E0EBE2F0E0A6
:1006A000808184608C93ABE2B0E0EBE2F0E080818B
:1006B00080628C938F859889009741F0ABE2B0E01F
:1006C000EBE2F0E0808180648C9307C0ABE2B0E0A5
:1006D000EBE2F0E080818F7B8C93CD56DF4F198267
:1006E0001882C359D0408F859889009741F4E1E082
:1006F000F0E0CD56DF4FF983E883C359D040CD56A3
:10070000DF4F88819981C359D040988B8F8780E0D3
:1007100090E0A8E4B3E48B879C87AD87BE876B85A8
:100720007C858D859E8520E030E04AEF54E40E9470
:10073000F870DC01CB018F839887A987BA876F8116
:10074000788589859A8520E030E040E85FE30E9463
:10075000526F88232CF481E090E09E838D833FC00C
:100760006F81788589859A8520E03FEF4FE757E4D0
:100770000E94F47018164CF56B857C858D859E85DE
:1007800020E030E040E251E40E94F870DC01CB014F
:10079000BC01CD010E94C36FDC01CB019E838D8320
:1007A0000FC088EC90E09C838B838B819C810197A8
:1007B000F1F79C838B838D819E8101979E838D832E
:1007C0008D819E81009769F7A9CE6F817885898593
:1007D0009A850E94C36FDC01CB019E838D838D813E
:1007E0009E819A83898389819A810197F1F79A83FF
:1007F000898394CEDF93CF9300D0CDB7DEB79A83B1
:100800008983E981FA81868597850E94BA2C0F90A9
:100810000F90CF91DF910895DF93CF9300D0CDB7A4
:10082000DEB79A838983E981FA818485958501976A
:10083000E981FA8195878487E981FA8184859585A4
:10084000009741F489819A810E94FA0389819A81F3
:100850000E94676D0F900F90CF91DF910895DF9305
:10086000CF9300D000D0CDB7DEB79C838B8380E0E0
:100870000E942A259A83898389819A810F900F90FB
:100880000F900F90CF91DF9108950F931F93DF93F7
:10089000CF9300D000D000D0CDB7DEB79C838B8340
:1008A0007E836D838D819E8160E070E00E94264C86
:1008B0009A8389838B819C81FC013E968081918102
:1008C0000E94BA2C8B819C818C01025F1F4F898111
:1008D0009A810E94FD28F8019183808389819A8101
:1008E0000E94BA2C26960FB6F894DEBF0FBECDBF7D
:1008F000CF91DF911F910F910895DF93CF9300D097
:1009000000D0CDB7DEB79C838B838B819C81FC01AB
:100910003E968081918160E070E00E94264C60E00C
:1009200070E00E94264C9A83898389819A810F9076
:100930000F900F900F90CF91DF910895DF93CF9399
:10094000CDB7DEB7CF91DF910895DF93CF93CDB7C9
:10095000DEB7CF91DF910895DF93CF93CDB7DEB7A8
:10096000CF91DF910895DF93CF93CDB7DEB7CF91CD
:10097000DF910895DF93CF9300D000D0CDB7DEB7DD
:100980009C838B838B819C819A83898389819A81C3
:100990000E947D040F900F900F900F90CF91DF91E8
:1009A0000895DF93CF9300D0CDB7DEB79A838983C4
:1009B00089819A81009731F482E190E00E94BA6CBB
:1009C0009A83898389819A810097C9F189819A8163
:1009D0000E94C41A8091C4029091C502009789F4C4
:1009E000E981FA812081318180EC92E0B90142E114
:1009F00050E00E94A36E8AEB94E09093CB02809328
:100A0000CA02E981FA8180EC92E091838083E981D6
:100A1000FA8183E090E093878287E981FA811586E5
:100A20001486E981FA8185E591E091878087898143
:100A30009A810E942F04E981FA81978786878981AC
:100A40009A810F900F90CF91DF910895DF93CF930C
:100A500000D000D000D0CDB7DEB780E090E00E949B
:100A6000D1049A838983E981FA81628573858981BA
:100A70009A819C01245F3F4F4CE054E0E981FA8168
:100A8000CB01B9019F010E94FB471B821C821D8282
:100A90001E829C838B832B813C814D815E818BE008
:100AA00090E0BA01A9010E94CB2426960FB6F894D3
:100AB000DEBF0FBECDBFCF91DF910895DF93CF93FF
:100AC00000D000D000D0CDB7DEB79C838B837E836F
:100AD0006D831A8219828B819C81009769F40E9430
:100AE00026059A838983E981FA8184819581FC01B5
:100AF000808191819C838B838B819C81FC013896C2
:100B000080819181FC01369684819581FC018B81E5
:100B10009C812D813E81B901099589819A81269612
:100B20000FB6F894DEBF0FBECDBFCF91DF91089511
:100B3000DF93CF9300D000D0CDB7DEB79C838B83FB
:100B40001A8219828B819C81009769F40E94260584
:100B50009A838983E981FA8184819581FC0180816E
:100B600091819C838B8389819A810F900F900F9044
:100B70000F90CF91DF910895DF93CF9300D0CDB741
:100B8000DEB79A838983E981FA81868197810E9401
:100B9000BA2CE981FA81808591850E94BA2CE9817D
:100BA000FA81828593850E94BA2CE981FA81848535
:100BB00095850E94BA2C0F900F90CF91DF910895E8
:100BC000DF93CF9300D0CDB7DEB79A838983E981D5
:100BD000FA81848195810197E981FA8195838483E3
:100BE000E981FA8184819581009741F489819A8114
:100BF0000E94BC0589819A810E94676D0F900F90B9
:100C0000CF91DF910895DF93CF9300D0CDB7DEB7BA
:100C100084E090E00E9406259A83898389819A81E5
:100C20000F900F90CF91DF9108950F931F93DF9353
:100C3000CF93CDB7DEB766970FB6F894DEBF0FBE81
:100C4000CDBF9E8B8D8B80E060E070E00E940F4BEB
:100C50009C8B8B8B8D899E89FC013A96808191813A
:100C600060E070E00E94264CFC0184819581FC01CB
:100C700080819181FC0180819181FC013696848183
:100C800095818C018D899E89FC013A9680819181A4
:100C900060E070E00E94264CFC0184819581FC019B
:100CA00080819181F80109958C0184EF91E060E0E9
:100CB00070E00E94E34A9C01C801B90140E050E0A5
:100CC0000E9462460E949133882309F443C08D89B3
:100CD0009E89FC013C968081918160E070E00E94D9
:100CE000264CFC0184819581FC0180819181FC016D
:100CF00080819181FC013696848195818C018D895A
:100D00009E89FC013C968081918160E070E00E94A8
:100D1000264CFC0184819581FC0180819181F80140
:100D200009958C0184EF91E060E070E00E94E34A55
:100D30009C01C801B90140E050E00E9462460E9457
:100D40009133882339F081E060E070E00E940F4B1E
:100D50009C8B8B8B8B899C890E949133882309F40F
:100D60009CC0E091DE02F091DF0284819581FC015C
:100D700080819181FC01389680819181FC013C96B3
:100D8000848195819C01E091DE02F091DF028481F3
:100D90009581FC0180819181F901099560E070E005
:100DA0000E940E349C878B878D899E89FC01389622
:100DB0008081918160E070E00E94264CFC0184817A
:100DC0009581FC0180819181FC0180819181FC01F0
:100DD0003696848195818C018D899E89FC01389697
:100DE0008081918160E070E00E94264CFC0184814A
:100DF0009581FC01808191812B853C85B901F801A9
:100E00000995E091DE02F091DF0284819581FC0179
:100E100080819181FC01389680819181FC013C9612
:100E2000848195819C01E091DE02F091DF02848152
:100E30009581FC0180819181F90109959A878987C3
:100E40008D899E89FC0136968081918160E070E0F9
:100E50000E94264CFC0184819581FC018081918156
:100E6000FC0180819181FC013696848195818C0101
:100E70008D899E89FC0136968081918160E070E0C9
:100E80000E94264CFC0184819581FC018081918126
:100E900029853A85B901F801099580E060E070E0A4
:100EA0000E940F4B9A8B898B8D899E89FC013A9603
:100EB0008081918160E070E00E94264CFC01848179
:100EC0009581FC0180819181FC0180819181FC01EF
:100ED0003696848195818C018D899E89FC013A9694
:100EE0008081918160E070E00E94264CFC01848149
:100EF0009581FC0180819181F80109958C0184EF35
:100F000091E060E070E00E94E34A9C01C801B901F1
:100F100040E050E00E9462460E949133882309F429
:100F200043C08D899E89FC013C968081918160E05F
:100F300070E00E94264CFC0184819581FC01808137
:100F40009181FC0180819181FC013696848195819B
:100F50008C018D899E89FC013C968081918160E0A5
:100F600070E00E94264CFC0184819581FC01808107
:100F70009181F80109958C0184EF91E060E070E0C7
:100F80000E94E34A9C01C801B90140E050E00E9480
:100F900044440E949133882339F081E060E070E09E
:100FA0000E940F4B9A8B898B89899A890E94913371
:100FB000882309F49CC0E091E002F091E102848171
:100FC0009581FC0180819181FC013896808191811D
:100FD000FC013C96848195819C01E091E002F091B6
:100FE000E10284819581FC0180819181F90109955B
:100FF00060E070E00E940E3498878F838D899E890F
:10100000FC0138968081918160E070E00E94264C5E
:10101000FC0184819581FC0180819181FC018081AA
:101020009181FC013696848195818C018D899E8900
:10103000FC0138968081918160E070E00E94264C2E
:10104000FC0184819581FC01808191812F8138850B
:10105000B901F8010995E091E202F091E30284817F
:101060009581FC0180819181FC013896808191817C
:10107000FC013C96848195819C01E091E202F09113
:10108000E30284819581FC0180819181F9010995B8
:101090009E838D838D899E89FC0136968081918106
:1010A00060E070E00E94264CFC0184819581FC0187
:1010B00080819181FC0180819181FC01369684813F
:1010C00095818C018D899E89FC0136968081918164
:1010D00060E070E00E94264CFC0184819581FC0157
:1010E000808191812D813E81B901F801099580E0CF
:1010F00060E070E00E940F4B988B8F878D899E89EE
:10110000FC013A968081918160E070E00E94264C5B
:10111000FC0184819581FC0180819181FC018081A9
:101120009181FC013696848195818C018D899E89FF
:10113000FC013A968081918160E070E00E94264C2B
:10114000FC0184819581FC0180819181F8010995E0
:101150008C0184EF91E060E070E00E94E34A9C0122
:10116000C801B90140E050E00E9444440E9491331C
:10117000882309F443C08D899E89FC013C968081B7
:10118000918160E070E00E94264CFC018481958191
:10119000FC0180819181FC0180819181FC01369666
:1011A000848195818C018D899E89FC013C9680818A
:1011B000918160E070E00E94264CFC018481958161
:1011C000FC0180819181F80109958C0184EF91E007
:1011D00060E070E00E94E34A9C01C801B90140E070
:1011E00050E00E9462460E949133882339F081E0EA
:1011F00060E070E00E940F4B988B8F878F859889F5
:101200000E949133882309F49CC0E091E202F0919E
:10121000E30284819581FC0180819181FC013896F3
:1012200080819181FC013C96848195819C01E091B3
:10123000E202F091E30284819581FC018081918139
:10124000F901099560E070E00E940E349C838B8365
:101250008D899E89FC0138968081918160E070E0E3
:101260000E94264CFC0184819581FC018081918142
:10127000FC0180819181FC013696848195818C01ED
:101280008D899E89FC0138968081918160E070E0B3
:101290000E94264CFC0184819581FC018081918112
:1012A0002B813C81B901F8010995E091E002F091B0
:1012B000E10284819581FC0180819181FC01389655
:1012C00080819181FC013C96848195819C01E09113
:1012D000E002F091E10284819581FC01808191819D
:1012E000F90109959A8389838D899E89FC01369637
:1012F0008081918160E070E00E94264CFC01848135
:101300009581FC0180819181FC0180819181FC01AA
:101310003696848195818C018D899E89FC01369653
:101320008081918160E070E00E94264CFC01848104
:101330009581FC018081918129813A81B901F8016F
:10134000099580E060E070E00E940F4B9E878D87DA
:101350008D899E89FC013A968081918160E070E0E0
:101360000E94264CFC0184819581FC018081918141
:10137000FC0180819181FC013696848195818C01EC
:101380008D899E89FC013A968081918160E070E0B0
:101390000E94264CFC0184819581FC018081918111
:1013A000F80109958C0184EF91E060E070E00E9403
:1013B000E34A9C01C801B90140E050E00E94444466
:1013C0000E949133882309F443C08D899E89FC01D2
:1013D0003C968081918160E070E00E94264CFC0187
:1013E00084819581FC0180819181FC0180819181C2
:1013F000FC013696848195818C018D899E89FC0142
:101400003C968081918160E070E00E94264CFC0156
:1014100084819581FC0180819181F80109958C017D
:1014200084EF91E060E070E00E94E34A9C01C80113
:10143000B90140E050E00E9444440E949133882367
:1014400039F081E060E070E00E940F4B9E878D874D
:101450008D859E850E94913366960FB6F894DEBF07
:101460000FBECDBFCF91DF911F910F910895DF93F4
:10147000CF93CDB7DEB70E9403069093D30280933B
:10148000D202CF91DF910895DF93CF93CDB7DEB72E
:101490008091D2029091D3020E94BA2CCF91DF9119
:1014A0000895DF93CF93CDB7DEB7CF91DF91089545
:1014B000DF93CF93CDB7DEB7CF91DF910895DF9360
:1014C000CF9300D0CDB7DEB79A83898389819A8183
:1014D000009731F480E190E00E94BA6C9A8389838E
:1014E00089819A81009701F1E981FA8186E090E093
:1014F00093838283E981FA8115821482E981FA81DA
:101500008DE691E091838083E981FA8117821682CA
:10151000E981FA8111861086E981FA8113861286A3
:10152000E981FA811586148689819A810F900F903E
:10153000CF91DF910895DF93CF9300D000D000D0FA
:10154000CDB7DEB780E090E00E945F0A9A8389837E
:10155000E981FA816281738189819A819C012C5F82
:101560003F4F40EE55E0E981FA81CB01B9019F017F
:101570000E94FB471B821C821D821E829C838B83E0
:101580002B813C814D815E818BE090E0BA01A90105
:101590000E94CB2426960FB6F894DEBF0FBECDBFB7
:1015A000CF91DF9108950F931F93DF93CF93CDB722
:1015B000DEB764970FB6F894DEBF0FBECDBF9C8731
:1015C0008B877E876D87588B4F873A8B298B1C8B37
:1015D0000B8B1A8619868B859C85009769F40E946F
:1015E0009B0A9A878987E985FA8584819581FC0120
:1015F000808191819C878B878D859E8560E070E0DE
:101600000E94264C98878F838B859C85FC0136969B
:10161000808191810E94BA2C8B859C858C010A5F08
:101620001F4F8F8198850E94FD28F8019183808348
:101630008F8198850E94BA2C8F85988960E070E030
:101640000E94264C9E838D838B859C85FC01389659
:10165000808191810E94BA2C8B859C858C01085FCA
:101660001F4F8D819E810E94FD28F8019183808308
:101670008D819E810E94BA2C89899A8960E070E0F0
:101680000E94264C9C838B838B859C85FC013A961B
:10169000808191810E94BA2C8B859C858C01065F8C
:1016A0001F4F8B819C810E94FD28F80191838083CC
:1016B0008B819C810E94BA2C8B899C8960E070E0B0
:1016C0000E94264C9A8389838B859C85FC013C96DD
:1016D000808191810E94BA2C8B859C858C01045F4E
:1016E0001F4F89819A810E94FD28F8019183808390
:1016F00089819A810E94BA2C89859A8564960FB651
:10170000F894DEBF0FBECDBFCF91DF911F910F9137
:101710000895DF93CF9300D000D0CDB7DEB79C8380
:101720008B831A8219828B819C81009769F40E94B5
:101730009B0A9A838983E981FA8184819581FC01DE
:10174000808191819C838B8389819A810F900F90F6
:101750000F900F90CF91DF910895CF92DF92EF928B
:10176000FF920F931F93DF93CF93CDB7DEB76297AE
:101770000FB6F894DEBF0FBECDBF9C838B837E83F4
:101780006D8358874F833A8729871C870B87FE868E
:10179000ED86D88ACF868B859C859093B9038093FC
:1017A000B8038F8198852FE731E0B9010E94B36EAD
:1017B0000097C1F1E091B803F091B90340815181E4
:1017C0002091FA033091FB038DB79EB70C970FB6AB
:1017D000F8949EBF0FBE8DBFEDB7FEB7319681E086
:1017E00090E0918380833383228383E090E095832C
:1017F000848386EA91E0978386838FEA91E09187DC
:10180000808783EB91E093878287FA0109958DB7F2
:101810009EB70C960FB6F8949EBF0FBE8DBF1A8A66
:10182000198A32C08B819C810E94C36E01960E94EE
:10183000BA6C9A83898389819A812B813C81B90111
:101840000E94BC6E89819A819093FB038093FA0376
:1018500089859A850E94C36E019661E070E00E94BE
:101860009E6C909329038093280380912803909184
:10187000290329853A85B9010E94BC6E0E946E1326
:1018800081E090E09A8B898B89899A8962960FB65C
:10189000F894DEBF0FBECDBFCF91DF911F910F91A6
:1018A000FF90EF90DF90CF9008958F929F92AF922C
:1018B000BF92CF92DF92EF92FF920F931F93DF932D
:1018C000CF93CDB7DEB762970FB6F894DEBF0FBEE9
:1018D000CDBF9A8389837C836B832D833E834F8323
:1018E0005887E986FA860B871C87DE86CD868F8629
:1018F000988AA98ABA8A80E090E062960FB6F89436
:10190000DEBF0FBECDBFCF91DF911F910F91FF9032
:10191000EF90DF90CF90BF90AF909F908F90089501
:10192000DF93CF9300D0CDB7DEB79A83898380E071
:1019300090E00F900F90CF91DF910895DF93CF93B8
:1019400000D0CDB7DEB79A83898380E090E00F9016
:101950000F90CF91DF910895DF93CF9300D0CDB753
:10196000DEB79A83898380E090E00F900F90CF914B
:10197000DF910895DF93CF9300D0CDB7DEB79A8380
:10198000898380E090E00F900F90CF91DF910895D0
:10199000DF93CF9300D0CDB7DEB79A8389830E94BF
:1019A000F0130F900F90CF91DF910895DF93CF93B5
:1019B000CDB7DEB782EC91E0CF91DF910895DF9350
:1019C000CF93CDB7DEB786EC91E0CF91DF9108954C
:1019D000DF93CF93CDB7DEB728970FB6F894DEBF6D
:1019E0000FBECDBF9A8389837C836B835E834D83D7
:1019F00038872F8380E090E028960FB6F894DEBFFA
:101A00000FBECDBFCF91DF910895DF93CF93CDB7B8
:101A1000DEB72C970FB6F894DEBF0FBECDBF9E8306
:101A20008D8378876F835A8749873C872B871C82F1
:101A30001B8231C08B819C819C01220F331F8F81BF
:101A40009885FC01E20FF31F808191819A8389833D
:101A50008B819C819C01220F331F220F331F8B85AA
:101A60009C85280F391F89819A810496880F991FB8
:101A7000880F991FFC01E654FC4F80819181A2815F
:101A8000B381F90180839183A283B3838B819C818D
:101A900001969C838B832B813C8189859A852817AD
:101AA000390740F280E090E02C960FB6F894DEBF44
:101AB0000FBECDBFCF91DF910895DF93CF93CDB708
:101AC000DEB72C970FB6F894DEBF0FBECDBF9E8356
:101AD0008D8378876F835A8749873C872B871C8241
:101AE0001B822AC08B819C819C01220F331F8F8116
:101AF0009885FC01E20FF31F808191819A8389838D
:101B00008B819C819C01220F331F8B859C85DC017E
:101B1000A20FB31F89819A814896880F991FFC01F3
:101B2000E654FC4F8081918111969C938E938B811A
:101B30009C8101969C838B832B813C8189859A852E
:101B40002817390778F280E090E02C960FB6F894C9
:101B5000DEBF0FBECDBFCF91DF910895DF93CF934E
:101B6000CDB7DEB72C970FB6F894DEBF0FBECDBF52
:101B70009E838D8378876F835A8749873C872B871D
:101B80001C821B8229C08B819C819C01220F331FE8
:101B90008F819885FC01E20FF31F808191819A83E8
:101BA00089838B819C819C01220F331F8B859C85AF
:101BB000DC01A20FB31F89819A81880F991FFC0154
:101BC000E654FC4F8081918111969C938E938B817A
:101BD0009C8101969C838B832B813C8189859A858E
:101BE0002817390780F280E090E02C960FB6F89421
:101BF000DEBF0FBECDBFCF91DF910895DF93CF93AE
:101C0000CDB7DEB728970FB6F894DEBF0FBECDBFB5
:101C10009A8389837C836B835E834D8338872F838C
:101C200080E090E028960FB6F894DEBF0FBECDBFDF
:101C3000CF91DF910895DF93CF93CDB7DEB72C9787
:101C40000FB6F894DEBF0FBECDBF9E838D8378871D
:101C50006F835A8749873C872B871C821B8232C03F
:101C60008B819C819C01220F331F8F819885FC0101
:101C7000E20FF31F808191819A83898369817A8140
:101C80008B819C819C01220F331F220F331F8B8578
:101C90009C85FC01E20FF31F208131814281538139
:101CA000CB010496880F991F880F991FFC01E654F9
:101CB000FC4F20833183428353838B819C81019627
:101CC0009C838B832B813C8189859A8528173907D2
:101CD00038F280E090E02C960FB6F894DEBF0FBE8D
:101CE000CDBFCF91DF910895DF93CF93CDB7DEB70E
:101CF0002C970FB6F894DEBF0FBECDBF9E838D83A9
:101D000078876F835A8749873C872B871C821B8281
:101D10002AC08B819C819C01220F331F8F81988563
:101D2000FC01E20FF31F808191819A8389834981AD
:101D30005A818B819C819C01220F331F8B859C854E
:101D4000FC01E20FF31F20813181CA014896880F00
:101D5000991FFC01E654FC4F318320838B819C81C9
:101D600001969C838B832B813C8189859A852817DA
:101D7000390778F280E090E02C960FB6F894DEBF39
:101D80000FBECDBFCF91DF910895DF93CF93CDB735
:101D9000DEB72C970FB6F894DEBF0FBECDBF9E8383
:101DA0008D8378876F835A8749873C872B871C826E
:101DB0001B8229C08B819C819C01220F331F8F8144
:101DC0009885FC01E20FF31F808191819A838983BA
:101DD00049815A818B819C819C01220F331F8B8505
:101DE0009C85FC01E20FF31F20813181CA01880F1D
:101DF000991FFC01E654FC4F318320838B819C8129
:101E000001969C838B832B813C8189859A85281739
:101E1000390780F280E090E02C960FB6F894DEBF90
:101E20000FBECDBFCF91DF910895DF93CF93CDB794
:101E3000DEB728970FB6F894DEBF0FBECDBF9A83EA
:101E400089837C836B835E834D8338872F8380E017
:101E500090E028960FB6F894DEBF0FBECDBFCF91AD
:101E6000DF910895DF93CF9300D000D0CDB7DEB7D8
:101E70009A8389837C836B8380E090E00F900F903E
:101E80000F900F90CF91DF910895DF93CF9300D003
:101E900000D0CDB7DEB79A8389837C836B8380E0E3
:101EA00090E00F900F900F900F90CF91DF910895D9
:101EB000DF93CF9300D000D0CDB7DEB79A8389836C
:101EC0007C836B8380E090E00F900F900F900F90D9
:101ED000CF91DF910895DF93CF9300D000D000D051
:101EE000CDB7DEB79A8389837C836B835E834D8312
:101EF00080E090E026960FB6F894DEBF0FBECDBF0F
:101F0000CF91DF910895DF93CF93CDB7DEB72897B8
:101F10000FB6F894DEBF0FBECDBF9A8389837C8352
:101F20006B835E834D8338872F8380E090E0289613
:101F30000FB6F894DEBF0FBECDBFCF91DF910895ED
:101F4000DF93CF93CDB7DEB728970FB6F894DEBFF7
:101F50000FBECDBF9A8389837C836B835E834D8361
:101F600038872F8380E090E028960FB6F894DEBF84
:101F70000FBECDBFCF91DF910895CF92DF92EF9248
:101F8000FF920F931F93DF93CF93CDB7DEB72E97BA
:101F90000FB6F894DEBF0FBECDBF9A8389837C83D2
:101FA0006B835E834D8338872F831A870987FC866E
:101FB000EB86DE86CD8680E090E02E960FB6F89414
:101FC000DEBF0FBECDBFCF91DF911F910F91FF906C
:101FD000EF90DF90CF9008950F931F93DF93CF93EF
:101FE000CDB7DEB72A970FB6F894DEBF0FBECDBFD0
:101FF0009A8389837C836B835E834D8338872F83A9
:102000001A87098780E090E02A960FB6F894DEBF21
:102010000FBECDBFCF91DF911F910F9108950F9308
:102020001F93DF93CF93CDB7DEB72A970FB6F894FF
:10203000DEBF0FBECDBF9A8389837C836B835E83B3
:102040004D8338872F831A87098780E090E02A968E
:102050000FB6F894DEBF0FBECDBFCF91DF911F91B9
:102060000F910895DF93CF9300D0CDB7DEB79A8359
:10207000898380E090E00F900F90CF91DF910895D9
:10208000EF92FF920F931F93DF93CF93CDB7DEB7FD
:102090002E970FB6F894DEBF0FBECDBF9C838B8307
:1020A0004D835E836F83788709871A872B873C87E8
:1020B000FE86ED860E9414118D819E81AF81B885C8
:1020C00029853A854B855C85BC01CD010E942B1486
:1020D0009A8389830E94961289819A812E960FB6DF
:1020E000F894DEBF0FBECDBFCF91DF911F910F914E
:1020F000FF90EF900895DF93CF9300D000D000D0F1
:10210000CDB7DEB79A8389837C836B835E834D83EF
:1021100080E090E026960FB6F894DEBF0FBECDBFEC
:10212000CF91DF910895DF93CF9300D000D000D0FE
:10213000CDB7DEB79A8389837C836B835E834D83BF
:1021400080E090E026960FB6F894DEBF0FBECDBFBC
:10215000CF91DF910895DF93CF9300D000D000D0CE
:10216000CDB7DEB79A8389837C836B835E834D838F
:1021700080E090E026960FB6F894DEBF0FBECDBF8C
:10218000CF91DF910895DF93CF9300D000D000D09E
:10219000CDB7DEB79A8389837C836B835E834D835F
:1021A00080E090E026960FB6F894DEBF0FBECDBF5C
:1021B000CF91DF910895DF93CF9300D000D000D06E
:1021C000CDB7DEB79A8389837C836B835E834D832F
:1021D00080E090E026960FB6F894DEBF0FBECDBF2C
:1021E000CF91DF910895DF93CF9300D000D0CDB78A
:1021F000DEB79A8389837C836B838091D802909128
:10220000D902A091DA02B091DB02EB81FC818083DC
:102210009183A283B38380E090E00F900F900F90A2
:102220000F90CF91DF9108950F931F93DF93CF937A
:10223000CDB7DEB762970FB6F894DEBF0FBECDBF45
:102240008091CA039091CB03A091CC03B091CD03B0
:10225000BC01CD010E944A259A8B898BE091E00256
:10226000F091E10284819581FC0180819181FC01E2
:102270003E96808191810E94BA2CE091E002F0911B
:10228000E10284819581FC01808191818C01025F52
:102290001F4F89899A890E94FD28F80191838083C4
:1022A00089899A890E94BA2C8091CE039091CF039C
:1022B000A091D003B091D103BC01CD010E944A2569
:1022C000988B8F87E0912203F0912303848195817D
:1022D000FC0180819181FC013696808191810E9470
:1022E000FD289E878D87ED85FE8584819581FC0183
:1022F00080819181FC013E96808191810E94BA2C5F
:10230000ED85FE8584819581FC01808191818C0120
:10231000025F1F4F8F8598890E94FD28F8019183E5
:1023200080838F8598890E94BA2C8D859E850E9416
:10233000BA2C8091D2039091D303A091D403B09191
:10234000D503BC01CD010E944A259C878B87E09173
:102350002203F091230384819581FC018081918186
:10236000FC013896808191810E94FD289A87898797
:10237000E985FA8584819581FC0180819181FC0148
:102380003E96808191810E94BA2CE985FA858481EC
:102390009581FC01808191818C01025F1F4F8B85AB
:1023A0009C850E94FD28F801918380838B859C8504
:1023B0000E94BA2C89859A850E94BA2C8091DA03F2
:1023C0009091DB03A091DC03B091DD03BC01CD0152
:1023D0000E944A2598878F83E0912203F09123037E
:1023E00084819581FC0180819181FC013A968081F4
:1023F00091810E94FD289E838D83ED81FE818481E1
:102400009581FC0180819181FC013E9680819181C2
:102410000E94BA2CED81FE8184819581FC0180812E
:1024200091818C01025F1F4F8F8198850E94FD284A
:10243000F801918380838F8198850E94BA2C8D81C9
:102440009E810E94BA2C8091E2039091E303A091B7
:10245000E403B091E503BC01CD010E944A259C83B1
:102460008B83E091E202F091E30284819581FC018B
:1024700080819181FC013E96808191810E94BA2CDD
:10248000E091E202F091E30284819581FC01808178
:1024900091818C01025F1F4F8B819C810E94FD28DE
:1024A000F801918380838B819C810E94BA2C80915A
:1024B000E6039091E703A091E803B091E903BC0122
:1024C000CD010E944A259A838983E091DE02F09132
:1024D000DF0284819581FC0180819181FC013E961F
:1024E000808191810E94BA2CE091DE02F091DF029E
:1024F00084819581FC01808191818C01025F1F4F55
:1025000089819A810E94FD28F801918380838981C5
:102510009A810E94BA2C62960FB6F894DEBF0FBE65
:10252000CDBFCF91DF911F910F910895DF93CF938E
:10253000CDB7DEB728970FB6F894DEBF0FBECDBF7C
:102540008091CE019091CF01009709F46CC0E09189
:102550002203F091230384819581FC018081918184
:10256000FC013E96808191810E94FD2898878F838F
:10257000EF81F88584819581FC0180819181FC0146
:102580003E96808191810E94FD289E838D83ED81FE
:10259000FE8184819581A681B7818093D603909333
:1025A000D703A093D803B093D9038D819E810E9455
:1025B000BA2C8F8198850E94BA2CE0912203F09169
:1025C000230384819581FC0180819181FC013C96EB
:1025D000808191810E94FD289C838B83EB81FC810B
:1025E00084819581FC0180819181FC013E968081EE
:1025F00091810E94FD289A838983E981FA818481EF
:102600009581A681B7818093DE039093DF03A09329
:10261000E003B093E10389819A810E94BA2C8B81F7
:102620009C810E94BA2C28960FB6F894DEBF0FBE8C
:10263000CDBFCF91DF910895DF93CF93CDB7DEB7B4
:10264000E0912403F091250384819581FC01808130
:102650009181FC0180819181FC0136968481958174
:102660009C01E0912403F091250384819581FC0174
:1026700080819181F9010995E091B803F091B90346
:10268000408151812091FA033091FB038DB79EB7B1
:102690000A970FB6F8949EBF0FBE8DBFEDB7FEB779
:1026A000319681E090E09183808333832283158289
:1026B000148280ED91E09783868387ED91E0918786
:1026C0008087FA0109958DB79EB70A960FB6F894E0
:1026D0009EBF0FBE8DBFCF91DF9108950F931F93C3
:1026E000DF93CF9300D0CDB7DEB70E9445481A8262
:1026F000198236C009811A8189819A81880F991FB0
:102700009C01220F331F220F331F820F931FFC01E6
:10271000EC5EFD4F80819181A281B381BC01CD012E
:1027200028E23BE64EE65EE40E94566FDC01CB01F8
:10273000AC01BD01C801880F991F9C01220F331FF6
:10274000220F331F820F931FFC01EC5EFD4F40836D
:1027500051836283738389819A8101969A838983E5
:1027600089819A81181619062CF60E949A1D0E94DA
:102770009C1A0E941E190E949E040E94F31B0E9434
:10278000DA200E94370A0E9459220E941B240E94CC
:102790007D170E94261F0E94B41D0E94B61A0E9437
:1027A0002C190E94AC040E94011C0E94E8200E9487
:1027B000510A0E9473220E9435240E94BB170E9476
:1027C000401F80E090E00E94FD229093D70280930A
:1027D000D6020F900F90CF91DF911F910F91089526
:1027E000DF93CF93CDB7DEB70E94BB1D0E94BD1A09
:1027F0000E9433190E94B3040E94081C0E94EF201B
:102800000E94580A0E9486220E943C240E94C217FD
:102810000E94471F0E94A71D0E94A91A0E94251905
:102820000E94A5040E94FA1B0E94E1200E94440A13
:102830000E9466220E9428240E949C170E94331F37
:102840008091D6029091D7020E94BA2C0E949D4995
:10285000CF91DF910895CF92DF92EF92FF920F9385
:102860001F93DF93CF93CDB7DEB72E970FB6F894B3
:10287000DEBF0FBECDBF6F83788789879A872B878E
:102880003C874D875E871E821D82A1C18D819E81FE
:10289000880F991F9C01220F331F220F331F820FB5
:1028A000931FFC01E65EFD4F80819181A281B3817F
:1028B000BC01CD012F81388549855A850E94F4706D
:1028C00088230CF4C6C08D819E81880F991F9C01BE
:1028D000220F331F220F331F820F931FFC01E65E6E
:1028E000FD4FE080F180028113816F8178858985B9
:1028F0009A852B853C854D855E850E94EE6EDC01B8
:10290000CB019C01AD01C801B7010E94F47088237E
:102910003CF01A8219821092CF011092CE01EFC0C2
:102920008D819E81880F991F9C01220F331F220FDA
:10293000331F820F931FFC01E65EFD4FE080F180A4
:10294000028113818D819E81880F991F9C01220F26
:10295000331F220F331F820F931FFC01EC5EFD4FCC
:102960002081318142815381C801B7010E94EE6EFE
:10297000DC01CB017C018D016F81788589859A8589
:102980002B853C854D855E850E94EE6EDC01CB017A
:102990009C01AD01C801B7010E94526F18160CF4DA
:1029A0004FC06F81788589859A852B853C854D85BB
:1029B0005E850E94EE6EDC01CB017C018D018D8174
:1029C0009E81880F991F9C01220F331F220F331FF6
:1029D000820F931FFC01E65EFD4F20813181428111
:1029E0005381C801B7010E94ED6EDC01CB017C016F
:1029F0008D018D819E81880F991F9C01220F331FAD
:102A0000220F331F820F931FFC01EC5EFD4F2081CC
:102A1000318142815381C801B7010E94566FDC01A8
:102A2000CB01BC01CD010E94BE6FDC01CB019A83BA
:102A3000898381E090E09093CF018093CE015FC0C5
:102A40001A82198281E090E09093CF018093CE01A9
:102A500056C06F81788589859A852B853C854D8503
:102A60005E850E94EE6EDC01CB017C018D018D81C3
:102A70009E81880F991F9C01220F331F220F331F45
:102A8000820F931FFC01E65EFD4F20813181428160
:102A90005381C801B7010E94ED6EDC01CB017C01BE
:102AA0008D018D819E81880F991F9C01220F331FFC
:102AB000220F331F820F931FFC01EC5EFD4F20811C
:102AC000318142815381C801B7010E94566FDC01F8
:102AD000CB01BC01CD010E94BE6FDC01CB019A830A
:102AE000898381E090E09093CF018093CE0189812A
:102AF0009A81009721F41092CF011092CE011C828E
:102B00001B8256C08D819E81880F991F9C01220FC8
:102B1000331F220F331F820F931FFC01E85EFD4F0E
:102B20000190F081E02D0995CD80DE808D819E8120
:102B3000880F991F9C01220F331F220F331F820F12
:102B4000931FFC01E65EFD4FE080F180028113815E
:102B50008D819E81880F991F9C01220F331F220FA8
:102B6000331F820F931FFC01EC5EFD4F20813181EA
:102B700042815381C801B7010E94EE6EDC01CB0196
:102B8000AC01BD01C601880F991F9C01220F331FA4
:102B9000220F331F820F931FFC01E65EFD4F40831F
:102BA0005183628373838B819C8101969C838B8389
:102BB0002B813C8189819A81281739070CF4A2CF97
:102BC0000E94E2498D819E8101969E838D838D8135
:102BD0009E81181619060CF059CE80E09EEFAFEFDB
:102BE000B6E48093D8029093D902A093DA02B0930E
:102BF000DB0280E090E02E960FB6F894DEBF0FBEA9
:102C0000CDBFCF91DF911F910F91FF90EF90DF909B
:102C1000CF900895DF93CF9300D0CDB7DEB780E09B
:102C200090E00E94A7249A838983E981FA818481B4
:102C30009581FC0180819181FC010190F081E02D62
:102C4000848195819C01E981FA8184819581FC01CF
:102C500080819181F901099589819A810E94BA2C1C
:102C60000F900F90CF91DF910895DF93CF9300D015
:102C7000CDB7DEB79A838983E981FA81868197810E
:102C80000E94BA2CE981FA81808591850E94BA2C34
:102C9000E981FA81828593850E94BA2CE981FA81C3
:102CA000848595850E94BA2CE981FA81868597856D
:102CB0000E94BA2C0F900F90CF91DF910895DF936F
:102CC000CF9300D0CDB7DEB79A838983E981FA81AB
:102CD000848195810197E981FA8195838483E981D3
:102CE000FA8184819581009741F489819A810E94BB
:102CF000351689819A810E94676D0F900F90CF9150
:102D0000DF910895DF93CF9300D000D0CDB7DEB729
:102D10009C838B8360E070E080E090E00E944A2515
:102D20009C0180E090E0B9010E94B31C9A838983E2
:102D300089819A810F900F900F900F90CF91DF9122
:102D40000895DF93CF9300D000D0CDB7DEB79C833A
:102D50008B8360E070E080E090E00E944A259C0157
:102D600080E090E0B9010E94B31C9A838983898135
:102D70009A810F900F900F900F90CF91DF9108954F
:102D8000DF93CF9300D000D0CDB7DEB79C838B8389
:102D900060E070E080E090E00E944A259C0180E0C5
:102DA00090E0B9010E94B31C9A83898389819A813A
:102DB0000F900F900F900F90CF91DF910895DF93B8
:102DC000CF9300D000D0CDB7DEB79C838B8360E07B
:102DD00070E080E090E00E944A259C0180E090E055
:102DE000B9010E94B31C9A83898389819A810F90CB
:102DF0000F900F900F90CF91DF910895DF93CF93B5
:102E000000D000D0CDB7DEB79C838B8360E070E04C
:102E100080E090E00E944A259C0180E090E0B901AA
:102E20000E94B31C9A83898389819A810F900F90A5
:102E30000F900F90CF91DF910895DF93CF9300D043
:102E4000CDB7DEB760E070E080E89FE30E944A25DE
:102E50009C0180E090E0B9010E94B31C9A838983B1
:102E600089819A810F900F90CF91DF910895DF9320
:102E7000CF9300D0CDB7DEB760E070E080EA90E499
:102E80000E944A259C0180E090E0B9010E94B31C99
:102E90009A83898389819A810F900F90CF91DF91D6
:102EA0000895DF93CF9300D0CDB7DEB760E070E038
:102EB00080E890E40E944A259C0180E090E0B901FE
:102EC0000E94B31C9A83898389819A810F900F9005
:102ED000CF91DF910895DF93CF9300D0CDB7DEB7C8
:102EE00088E090E00E9406259A83898389819A81EF
:102EF0000F900F90CF91DF910895DF93CF93CDB7CF
:102F0000DEB70E946B179093DD028093DC020E9473
:102F100051179093DF028093DE020E94371790933F
:102F2000E1028093E0020E941D179093E3028093D8
:102F3000E202CF91DF910895DF93CF93CDB7DEB753
:102F40008091DC029091DD020E94BA2C8091DE0219
:102F50009091DF020E94BA2C8091E0029091E102F0
:102F60000E94BA2C8091E2029091E3020E94BA2C56
:102F7000CF91DF910895DF93CF93CDB7DEB7CF9197
:102F8000DF910895DF93CF93CDB7DEB7CF91DF9177
:102F90000895DF93CF9300D0CDB7DEB79A838983AE
:102FA00089819A81009731F482E190E00E94BA6CA5
:102FB0009A83898389819A810097C1F1E981FA8195
:102FC00089E090E093838283E981FA8115821482FB
:102FD000E981FA818EE192E09183808389819A81EF
:102FE0000E94FE16E981FA819783868389819A81FE
:102FF0000E94DF16E981FA819187808789819A8111
:103000000E94C016E981FA819387828789819A811B
:103010000E94A116E981FA819587848789819A8126
:103020000E948216E981FA819787868789819A8131
:103030000F900F90CF91DF910895DF93CF9300D041
:1030400000D000D0CDB7DEB780E090E00E94C91775
:103050009A838983E981FA816281738189819A8166
:103060009C012C5F3F4F4FE556E1E981FA81CB018E
:10307000B9019F010E94FB471B821C821D821E8298
:103080009C838B832B813C814D815E818BE090E022
:10309000BA01A9010E94CB2426960FB6F894DEBF90
:1030A0000FBECDBFCF91DF910895DF93CF9300D0B6
:1030B00000D0CDB7DEB79C838B831A8219828B81B7
:1030C0009C81009769F40E941D189A838983E98185
:1030D000FA8184819581FC01808191819C838B831D
:1030E00089819A810F900F900F900F90CF91DF916F
:1030F0000895DF93CF9300D0CDB7DEB79A8389834D
:10310000E981FA81868597850E94BA2C0F900F90ED
:10311000CF91DF910895DF93CF9300D0CDB7DEB785
:103120009A838983E981FA81848595850197E9816C
:10313000FA8195878487E981FA818485958500974E
:1031400041F489819A810E94791889819A810E942B
:10315000676D0F900F90CF91DF910895DF93CF931C
:1031600000D000D0CDB7DEB79C838B8380E090E0A9
:103170000E9406259A83898389819A810F900F90F6
:103180000F900F90CF91DF9108950F931F93DF93CE
:10319000CF9300D000D000D0CDB7DEB79C838B8317
:1031A0007E836D838D819E8160E070E00E94264C5D
:1031B0009A8389838B819C81FC013E9680819181D9
:1031C0000E94BA2C8B819C818C01025F1F4F8981E8
:1031D0009A810E94FD28F8019183808389819A81D8
:1031E0000E94BA2C26960FB6F894DEBF0FBECDBF54
:1031F000CF91DF911F910F910895DF93CF9300D06E
:1032000000D0CDB7DEB79C838B838B819C81FC0182
:103210003E968081918160E070E00E94264C60E0E3
:1032200070E00E94264C9A83898389819A810F904D
:103230000F900F900F90CF91DF910895DF93CF9370
:10324000CDB7DEB7CF91DF910895DF93CF93CDB7A0
:10325000DEB7CF91DF910895DF93CF93CDB7DEB77F
:10326000CF91DF910895DF93CF93CDB7DEB7CF91A4
:10327000DF910895DF93CF9300D000D0CDB7DEB7B4
:103280009C838B838B819C819A83898389819A819A
:103290000E94FD180F900F900F900F90CF91DF912B
:1032A0000895DF93CF9300D0CDB7DEB79A8389839B
:1032B00089819A81009731F482E190E00E94BA6C92
:1032C0009A83898389819A810097C9F189819A813A
:1032D0000E94C41A8091E8029091E902009789F453
:1032E000E981FA812081318184EE92E0B90142E1E5
:1032F00050E00E94A36E8AE399E19093EF028093DD
:10330000EE02E981FA8184EE92E091838083E98183
:10331000FA8182E090E093878287E981FA811586BD
:103320001486E981FA8184E292E09187808789811D
:103330009A810E94AE18E981FA81978786878981F0
:103340009A810F900F90CF91DF910895DF93CF93E3
:1033500000D000D000D0CDB7DEB780E090E00E9472
:1033600051199A838983E981FA81628573858981FC
:103370009A819C01245F3F4F4BE858E1E981FA8133
:10338000CB01B9019F010E94FB471B821C821D8259
:103390001E829C838B832B813C814D815E818BE0DF
:1033A00090E0BA01A9010E94CB2426960FB6F894AA
:1033B000DEBF0FBECDBFCF91DF910895DF93CF93D6
:1033C00000D000D000D0CDB7DEB79C838B837E8346
:1033D0006D831A8219828B819C81009769F40E9407
:1033E000A6199A838983E981FA8184819581FC01F8
:1033F000808191819C838B838B819C81FC01389699
:1034000080819181FC01369684819581FC018B81BC
:103410009C812D813E81B901099589819A812696E9
:103420000FB6F894DEBF0FBECDBFCF91DF910895E8
:10343000DF93CF9300D000D0CDB7DEB79C838B83D2
:103440001A8219828B819C81009769F40E94A619C7
:103450009A838983E981FA8184819581FC01808145
:1034600091819C838B8389819A810F900F900F901B
:103470000F90CF91DF910895DF93CF9300D0CDB718
:10348000DEB79A8389830F900F90CF91DF910895D3
:10349000DF93CF9300D0CDB7DEB79A838983E981DC
:1034A000FA81848195810197E981FA8195838483EA
:1034B000E981FA8184819581009741F489819A811B
:1034C0000E943C1A89819A810E94676D0F900F902B
:1034D000CF91DF910895DF93CF9300D0CDB7DEB7C2
:1034E00080E090E00E9406259A83898389819A81F1
:1034F0000F900F90CF91DF910895DF93CF9300D07D
:1035000000D0CDB7DEB79A8389837C836B830F901D
:103510000F900F900F90CF91DF910895DF93CF938D
:1035200000D0CDB7DEB79A83898380E090E00F901A
:103530000F90CF91DF910895DF93CF93CDB7DEB792
:103540000E946B1A9093F7028093F602CF91DF915D
:103550000895DF93CF93CDB7DEB78091F6029091B7
:10356000F7020E94BA2CCF91DF910895DF93CF9399
:10357000CDB7DEB7CF91DF910895DF93CF93CDB76D
:10358000DEB7CF91DF910895DF93CF9300D0CDB711
:10359000DEB79A83898389819A81009731F488E024
:1035A00090E00E94BA6C9A83898389819A810097FE
:1035B00081F0E981FA8181E090E093838283E9815F
:1035C000FA8115821482E981FA818CE392E0918379
:1035D000808389819A810F900F90CF91DF91089518
:1035E000DF93CF9300D000D000D0CDB7DEB780E01E
:1035F00090E00E94C41A9A838983E981FA816281EA
:10360000738189819A819C012C5F3F4F48E45AE184
:10361000E981FA81CB01B9019F010E94FB471B821E
:103620001C821D821E829C838B832B813C814D8159
:103630005E818BE090E0BA01A9010E94CB2426961E
:103640000FB6F894DEBF0FBECDBFCF91DF910895C6
:10365000DF93CF9300D000D0CDB7DEB79C838B83B0
:103660001A8219828B819C81009769F40E94F01A5A
:103670009A838983E981FA8184819581FC01808123
:1036800091819C838B8389819A810F900F900F90F9
:103690000F90CF91DF910895DF93CF9300D0CDB7F6
:1036A000DEB79A838983E981FA81868597850E94AE
:1036B000BA2C0F900F90CF91DF910895DF93CF93A5
:1036C00000D0CDB7DEB79A838983E981FA818485FA
:1036D00095850197E981FA8195878487E981FA8147
:1036E00084859585009741F489819A810E944C1BBD
:1036F00089819A810E94676D0F900F90CF91DF9121
:103700000895DF93CF9300D000D0CDB7DEB79C8370
:103710008B8360E070E080E090E00E944A259A830D
:10372000898389819A810F900F900F900F90CF918C
:10373000DF9108950F931F93DF93CF9300D000D0B4
:1037400000D0CDB7DEB79C838B837E836D838D8164
:103750009E8160E070E00E94264C9A8389838B8171
:103760009C81FC013E96808191810E94BA2C8B81C4
:103770009C818C01025F1F4F89819A810E94FD28E4
:10378000F8019183808389819A810E94BA2C2696C0
:103790000FB6F894DEBF0FBECDBFCF91DF911F9162
:1037A0000F910895DF93CF9300D000D0CDB7DEB74F
:1037B0009C838B838B819C81FC013E9680819181CF
:1037C00060E070E00E94264C60E070E00E94264CB1
:1037D0009A83898389819A810F900F900F900F901F
:1037E000CF91DF910895DF93CF93CDB7DEB7CF911F
:1037F000DF910895DF93CF93CDB7DEB7CF91DF91FF
:103800000895DF93CF93CDB7DEB7CF91DF910895C1
:10381000DF93CF93CDB7DEB7CF91DF910895DF93DC
:10382000CF9300D000D0CDB7DEB79C838B838B8144
:103830009C819A83898389819A810E94D21B0F90EF
:103840000F900F900F90CF91DF910895DF93CF935A
:1038500000D0CDB7DEB79A83898389819A8100979A
:1038600031F482E190E00E94BA6C9A838983898165
:103870009A810097C9F189819A810E94C41A809126
:10388000FC029091FD02009789F4E981FA81208180
:10389000318188EF92E0B90142E150E00E94A36ECD
:1038A0008FE09CE19093030380930203E981FA8106
:1038B00088EF92E091838083E981FA8184E090E04F
:1038C00093878287E981FA8115861486E981FA81D6
:1038D0008EE492E09187808789819A810E94811B82
:1038E000E981FA819787868789819A810F900F9065
:1038F000CF91DF910895DF93CF9300D000D000D017
:10390000CDB7DEB780E090E00E94261C9A838983C1
:10391000E981FA816285738589819A819C01245F9E
:103920003F4F4EE55BE1E981FA81CB01B9019F018F
:103930000E94FB471B821C821D821E829C838B83FC
:103940002B813C814D815E818BE090E0BA01A90121
:103950000E94CB2426960FB6F894DEBF0FBECDBFD3
:10396000CF91DF910895DF93CF9300D000D000D0A6
:10397000CDB7DEB79C838B837E836D831A821982D9
:103980008B819C81009769F40E947B1C9A838983B8
:10399000E981FA8184819581FC01808191819C83F8
:1039A0008B838B819C81FC01389680819181FC0105
:1039B000369684819581FC018B819C812D813E818D
:1039C000B901099589819A8126960FB6F894DEBFD0
:1039D0000FBECDBFCF91DF910895DF93CF9300D07D
:1039E00000D0CDB7DEB79C838B831A8219828B817E
:1039F0009C81009769F40E947B1C9A838983E981EA
:103A0000FA8184819581FC01808191819C838B83E3
:103A100089819A810F900F900F900F90CF91DF9135
:103A20000895DF93CF9300D0CDB7DEB79A83898313
:103A3000E981FA81868197810E94BA2C0F900F90BC
:103A4000CF91DF910895DF93CF9300D0CDB7DEB74C
:103A50009A838983E981FA81848195810197E9813B
:103A6000FA8195838483E981FA8184819581009725
:103A700041F489819A810E94111D89819A810E9455
:103A8000676D0F900F90CF91DF910895DF93CF93E3
:103A900000D0CDB7DEB781E090E00E9406259A8382
:103AA000898389819A810F900F90CF91DF9108953A
:103AB0000F931F93DF93CF9300D000D0CDB7DEB725
:103AC0009C838B838B819C81FC01369680819181C4
:103AD00060E070E00E94264CFC0184819581FC012D
:103AE00080819181FC01389680819181FC013C9616
:103AF000848195818C018B819C81FC01369680812B
:103B0000918160E070E00E94264CFC0184819581E7
:103B1000FC0180819181F80109959A8389838981CB
:103B20009A810F900F900F900F90CF91DF911F917E
:103B30000F910895DF93CF93CDB7DEB70E94461D56
:103B400090930B0380930A03CF91DF910895DF9345
:103B5000CF93CDB7DEB780910A0390910B030E94FB
:103B6000BA2CCF91DF910895DF93CF93CDB7DEB715
:103B7000CF91DF910895DF93CF93CDB7DEB7CF918B
:103B8000DF910895DF93CF9300D0CDB7DEB79A834E
:103B9000898389819A81009731F48AE090E00E94BC
:103BA000BA6C9A83898389819A81009791F0E9811F
:103BB000FA8113821282E981FA8115821482E981E5
:103BC000FA8186E692E091838083E981FA81178207
:103BD000168289819A810F900F90CF91DF9108957D
:103BE000DF93CF9300D000D000D0CDB7DEB780E018
:103BF00090E00E94C21D9A838983E981FA816281E3
:103C0000738189819A819C012C5F3F4F43E25DE182
:103C1000E981FA81CB01B9019F010E94FB471B8218
:103C20001C821D821E829C838B832B813C814D8153
:103C30005E818BE090E0BA01A9010E94CB24269618
:103C40000FB6F894DEBF0FBECDBFCF91DF910895C0
:103C50000F931F93DF93CF93CDB7DEB728970FB69F
:103C6000F894DEBF0FBECDBF9E838D8378876F83B0
:103C70001C821B828D819E81009769F40E94F01D39
:103C80009C838B83EB81FC8184819581FC01808105
:103C900091819E838D838F81988560E070E00E9482
:103CA000264C9A8389838D819E81FC013696808182
:103CB00091810E94BA2C8D819E818C010A5F1F4FD9
:103CC00089819A810E94FD28F801918380838981EE
:103CD0009A810E94BA2C8B819C8128960FB6F89409
:103CE000DEBF0FBECDBFCF91DF911F910F91089521
:103CF000DF93CF9300D000D0CDB7DEB79C838B830A
:103D00001A8219828B819C81009769F40E94F01DB0
:103D10009A838983E981FA8184819581FC0180817C
:103D200091819C838B8389819A810F900F900F9052
:103D30000F90CF91DF910895DF93CF9300D0CDB74F
:103D4000DEB79A838983E981FA81868197810E940F
:103D5000BA2C0F900F90CF91DF910895DF93CF93FE
:103D600000D0CDB7DEB79A838983E981FA81848157
:103D700095810197E981FA8195838483E981FA81AC
:103D800084819581009741F489819A810E949C1ECB
:103D900089819A810E94676D0F900F90CF91DF917A
:103DA0000895DF93CF9300D0CDB7DEB781E090E0E8
:103DB0000E9406259A83898389819A810F900F90AA
:103DC000CF91DF9108950F931F93DF93CF9300D08E
:103DD00000D0CDB7DEB79A8389837C836B838981DA
:103DE0009A81FC0136968081918160E070E00E94AA
:103DF000264CFC0184819581FC0180819181FC012C
:103E0000389680819181FC013696848195818C0160
:103E100089819A81FC0136968081918160E070E011
:103E20000E94264CFC0184819581FC018081918156
:103E30002B813C81B901F80109950F900F900F90EB
:103E40000F90CF91DF911F910F910895DF93CF9342
:103E5000CDB7DEB70E94D11E90930D0380930C0363
:103E6000CF91DF910895DF93CF93CDB7DEB78091E7
:103E70000C0390910D030E94BA2CCF91DF9108950D
:103E8000DF93CF93CDB7DEB7CF91DF910895DF9366
:103E9000CF93CDB7DEB7CF91DF910895DF93CF9366
:103EA00000D0CDB7DEB79A83898389819A81009744
:103EB00031F48AE090E00E94BA6C9A838983898108
:103EC0009A810097A1F0E981FA818AE090E09383DA
:103ED0008283E981FA8115821482E981FA8188E777
:103EE00092E091838083E981FA8117821682898129
:103EF0009A810F900F90CF91DF910895DF93CF9328
:103F000000D000D000D0CDB7DEB780E090E00E94B6
:103F10004E1F9A838983E981FA8162817381898145
:103F20009A819C012C5F3F4F4EEA5EE1E981FA8164
:103F3000CB01B9019F010E94FB471B821C821D829D
:103F40001E829C838B832B813C814D815E818BE023
:103F500090E0BA01A9010E94CB2426960FB6F894EE
:103F6000DEBF0FBECDBFCF91DF9108950F931F939A
:103F7000DF93CF93CDB7DEB728970FB6F894DEBFA7
:103F80000FBECDBF9E838D8378876F831C821B827B
:103F90008D819E81009769F40E947E1F9C838B8394
:103FA000EB81FC8184819581FC01808191819E83DC
:103FB0008D838F81988560E070E00E94264C9A8303
:103FC00089838D819E81FC013696808191810E943A
:103FD000BA2C8D819E818C010A5F1F4F89819A8145
:103FE0000E94FD28F8019183808389819A810E9433
:103FF000BA2C8B819C8128960FB6F894DEBF0FBE39
:10400000CDBFCF91DF911F910F910895DF93CF9393
:1040100000D000D0CDB7DEB79C838B831A82198283
:104020008B819C81009769F40E947E1F9A8389830B
:10403000E981FA8184819581FC01808191819C8351
:104040008B8389819A810F900F900F900F90CF9161
:10405000DF910895DF93CF9300D0CDB7DEB79A8379
:104060008983E981FA81868597850E94BA2C0F9011
:104070000F90CF91DF910895DF93CF9300D0CDB70C
:10408000DEB79A838983E981FA81848595850197D2
:10409000E981FA8195878487E981FA81848595850C
:1040A000009741F489819A810E942A2089819A810E
:1040B0000E94676D0F900F90CF91DF910895DF936D
:1040C000CF9300D000D0CDB7DEB79C838B8300D0D8
:1040D00000D0EDB7FEB731961182108213821282A2
:1040E0000E94E44D0F900F900F900F909A83898358
:1040F00089819A810F900F900F900F90CF91DF914F
:1041000008950F931F93DF93CF9300D000D000D07A
:10411000CDB7DEB79C838B837E836D838D819E813B
:1041200060E070E00E94264C9A8389838B819C8199
:10413000FC013E96808191810E94BA2C8B819C81EA
:104140008C01025F1F4F89819A810E94FD28F8012E
:104150009183808389819A810E94BA2C26960FB61A
:10416000F894DEBF0FBECDBFCF91DF911F910F91AD
:104170000895DF93CF9300D000D0CDB7DEB79C83F6
:104180008B838B819C81FC013E968081918160E0D4
:1041900070E00E94264C60E070E00E94264C9A83FA
:1041A000898389819A810F900F900F900F90CF9102
:1041B000DF910895DF93CF93CDB7DEB7CF91DF9135
:1041C0000895DF93CF93CDB7DEB7CF91DF910895F8
:1041D000DF93CF93CDB7DEB7CF91DF910895DF9313
:1041E000CF93CDB7DEB7CF91DF910895DF93CF9313
:1041F00000D000D0CDB7DEB79C838B838B819C81B0
:104200009A83898389819A810E94B9200F900F90A7
:104210000F900F90CF91DF910895DF93CF9300D04F
:10422000CDB7DEB79A83898389819A81009731F46B
:1042300082E190E00E94BA6C9A83898389819A8195
:104240000097C9F189819A810E94C41A8091120352
:1042500090911303009789F4E981FA8120813181DB
:104260008EE093E0B90142E150E00E94A36E86EF38
:1042700090E29093190380931803E981FA818EE00C
:1042800093E091838083E981FA8185E090E09387D0
:104290008287E981FA8115861486E981FA818AE8A4
:1042A00092E09187808789819A810E945F20E981CD
:1042B000FA819787868789819A810F900F90CF9195
:1042C000DF910895DF93CF9300D000D000D0CDB719
:1042D000DEB780E090E00E940D219A838983E98116
:1042E000FA816285738589819A819C01245F3F4FA1
:1042F0004CE350E2E981FA81CB01B9019F010E94B0
:10430000FB471B821C821D821E829C838B832B8118
:104310003C814D815E818BE090E0BA01A9010E9451
:10432000CB2426960FB6F894DEBF0FBECDBFCF913B
:10433000DF910895DF93CF9300D000D000D0CDB7A8
:10434000DEB79C838B837E836D831A8219828B8177
:104350009C81009769F40E9462219A838983E98194
:10436000FA8184819581FC01808191819C838B837A
:104370008B819C81FC01389680819181FC0136966D
:1043800084819581FC018B819C812D813E81B901C5
:10439000099589819A8126960FB6F894DEBF0FBEE3
:1043A000CDBFCF91DF910895DF93CF9300D000D0A0
:1043B000CDB7DEB79C838B831A8219828B819C8157
:1043C000009769F40E9462219A838983E981FA81C6
:1043D00084819581FC01808191819C838B8389817B
:1043E0009A810F900F900F900F90CF91DF910895C9
:1043F000DF93CF9300D0CDB7DEB79A8389830F9038
:104400000F90CF91DF910895DF93CF9300D0CDB778
:10441000DEB79A838983E981FA8184819581019746
:10442000E981FA8195838483E981FA818481958188
:10443000009741F489819A810E94F82189819A81AB
:104440000E94676D0F900F90CF91DF910895DF93D9
:10445000CF9300D0CDB7DEB71A82198289819A81B5
:104460000F900F90CF91DF910895DF93CF9300D0FD
:10447000CDB7DEB780E090E00E9455189A8389831B
:1044800089819A810F900F90CF91DF910895DF93EA
:10449000CF9300D0CDB7DEB782E090E00E94062532
:1044A0009A83898389819A810F900F90CF91DF91B0
:1044B0000895DF93CF93CDB7DEB70E944722909344
:1044C000210380932003CF91DF910895DF93CF9351
:1044D000CDB7DEB780912003909121030E94BA2CC2
:1044E000CF91DF910895DF93CF93CDB7DEB70E94D0
:1044F000352290932303809322030E9427229093D6
:10450000250380932403CF91DF910895DF93CF9308
:10451000CDB7DEB780912203909123030E94BA2C7D
:1045200080912403909125030E94BA2CCF91DF91B2
:104530000895DF93CF9300D0CDB7DEB79A838983F8
:1045400089819A81009731F488E090E00E94BA6CEA
:104550009A83898389819A81009781F0E981FA8120
:1045600087E090E093838283E981FA811582148247
:10457000E981FA8182EA92E09183808389819A813C
:104580000F900F90CF91DF910895DF93CF9300D0DC
:1045900000D000D0CDB7DEB780E090E00E94992235
:1045A0009A838983E981FA816281738189819A8101
:1045B0009C012C5F3F4F44E052E2E981FA81CB013C
:1045C000B9019F010E94FB471B821C821D821E8233
:1045D0009C838B832B813C814D815E818BE090E0BD
:1045E000BA01A9010E94CB2426960FB6F894DEBF2B
:1045F0000FBECDBFCF91DF9108950F931F93DF932F
:10460000CF93CDB7DEB72C970FB6F894DEBF0FBEB1
:10461000CDBF9C878B871A8619868B859C850097D2
:1046200069F40E94C5229A878987E985FA85848181
:104630009581FC01808191819C878B8780912203E9
:104640009091230360E070E00E94264CFC0184817D
:104650009581FC0180819181FC013E968081918150
:1046600060E070E00E94264C9C0180E090E0B9017F
:104670000E94B61F98878F83809122039091230315
:1046800060E070E00E94264CFC0184819581FC0171
:1046900080819181FC013C968081918160E070E095
:1046A0000E94264C9C0180E090E0B9010E94B61F58
:1046B0009E838D83809122039091230360E070E0BC
:1046C0000E94264CFC0184819581FC0180819181AE
:1046D000FC0138968081918160E070E00E94264C58
:1046E0009C0180E090E0B9010E94281E9C838B838E
:1046F000809122039091230360E070E00E94264C99
:10470000FC0184819581FC0180819181FC013696B8
:104710008081918160E070E00E94264C9C0180E0E5
:1047200090E0B9010E94281E9A8389832F813885E1
:104730004D815E81EB81FC81A981BA8180E090E0AE
:10474000B9019F018D010E94D30A909325038093A4
:10475000240389859A852C960FB6F894DEBF0FBE88
:10476000CDBFCF91DF911F910F910895DF93CF932C
:1047700000D0CDB7DEB79A8389830F900F90CF9189
:10478000DF910895DF93CF9300D0CDB7DEB79A8342
:104790008983E981FA81848195810197E981FA8190
:1047A00095838483E981FA8184819581009741F41E
:1047B00089819A810E94B62389819A810E94676DBE
:1047C0000F900F90CF91DF910895DF93CF9300D09A
:1047D000CDB7DEB780E090E00E9406259A838983FA
:1047E00089819A810F900F90CF91DF910895DF9387
:1047F000CF9300D0CDB7DEB79A838983E981FA8160
:1048000080819181FC01369684819581FC018981AA
:104810009A8109950F900F90CF91DF910895DF93C2
:10482000CF9300D0CDB7DEB79A8389830F900F90D6
:10483000CF91DF910895DF93CF93CDB7DEB70E947C
:10484000E5239093270380932603CF91DF9108956A
:10485000DF93CF93CDB7DEB78091260390912703E6
:104860000E94BA2CCF91DF910895DF93CF93CDB7FB
:10487000DEB7CF91DF910895DF93CF93CDB7DEB749
:10488000CF91DF910895DF93CF9300D0CDB7DEB7FE
:104890009A83898389819A81009731F488E090E036
:1048A0000E94BA6C9A83898389819A81009781F0EA
:1048B000E981FA8188E090E093838283E981FA813B
:1048C00015821482E981FA8188EA92E091838083DB
:1048D00089819A810F900F90CF91DF910895DF9396
:1048E000CF9300D000D000D0CDB7DEB780E090E00D
:1048F0000E9443249A838983E981FA8162817381CA
:1049000089819A819C012C5F3F4F42EC53E2E981FF
:10491000FA81CB01B9019F010E94FB471B821C82D7
:104920001D821E829C838B832B813C814D815E8105
:104930008BE090E0BA01A9010E94CB2426960FB625
:10494000F894DEBF0FBECDBFCF91DF910895DF9306
:10495000CF9300D000D0CDB7DEB79C838B831A8273
:1049600019828B819C81009769F40E946F249A833D
:104970008983E981FA8184819581FC01808191811B
:104980009C838B8389819A810F900F900F900F9059
:10499000CF91DF910895DF93CF93CDB7DEB72897FE
:1049A0000FB6F894DEBF0FBECDBF9C838B834D83C3
:1049B0005E836F83788788E090E00E94BA6C9A8368
:1049C000898389819A81009711F40E949B6EE98105
:1049D000FA818B819C8191838083E981FA818D8129
:1049E0009E81AF81B88584839583A683B783E9814F
:1049F000FA811382128289819A8128960FB6F894DF
:104A0000DEBF0FBECDBFCF91DF910895DF93CF936F
:104A100000D000D000D0CDB7DEB79E838D83198241
:104A20001A821B821C828D819E819A8389832981AF
:104A30003A814B815C8180E090E0BA01A9010E943B
:104A4000CB2426960FB6F894DEBF0FBECDBFCF9114
:104A5000DF910895DF93CF9300D000D00F92CDB7B0
:104A6000DEB78D8319821A821B821C828D81898315
:104A700029813A814B815C8183E090E0BA01A901F0
:104A80000E94CB240F900F900F900F900F90CF911A
:104A9000DF910895DF93CF93CDB7DEB728970FB698
:104AA000F894DEBF0FBECDBF6D837E838F83988762
:104AB00019821A821B821C828D819E81AF81B885EA
:104AC00089839A83AB83BC8329813A814B815C8142
:104AD00084E090E0BA01A9010E94CB2428960FB689
:104AE000F894DEBF0FBECDBFCF91DF910895DF9365
:104AF000CF9300D000D00F92CDB7DEB78D8319824F
:104B00001A821B821C828D81898329813A814B8183
:104B10005C8186E090E0BA01A9010E94CB240F904D
:104B20000F900F900F900F90CF91DF910895DF932A
:104B3000CF9300D000D000D0CDB7DEB79E838D8359
:104B400019821A821B821C828D819E819A8389839D
:104B500029813A814B815C8189E090E0BA01A90109
:104B60000E94CB2426960FB6F894DEBF0FBECDBFB1
:104B7000CF91DF910895DF93CF93CDB7DEB72F9715
:104B80000FB6F894DEBF0FBECDBF9E878D878D8593
:104B90009E850E943A6998878F838F8198859E832E
:104BA0008D8385E095E19C838B8311C08B819C81F3
:104BB0009C01220F331F220F331F8B819C81280FF2
:104BC000391F89819A81820F931F9C838B83EF8188
:104BD000F8858081992787FD90959A8389831F8620
:104BE00089819A81009711F081E08F878F81988564
:104BF000019698878F838F858823C1F68D819E814A
:104C00000E94676D19861A861B861C868B819C8183
:104C10009A87898729853A854B855C858AE090E06B
:104C2000BA01A9010E94CB242F960FB6F894DEBFDB
:104C30000FBECDBFCF91DF910895DF93CF93CDB756
:104C4000DEB72C970FB6F894DEBF0FBECDBF9887A6
:104C50008F837A87698784E090E00E94BA6C9A8398
:104C6000898389819A81009711F40E949B6E8F81BC
:104C70009885E981FA81938382838F819885009753
:104C800029F08F8198859C878B8704C081E090E014
:104C90009C878B878B859C8562E070E00E949E6C70
:104CA000E981FA8191838083E981FA818081918110
:104CB000009711F40E949B6E1B821C821D821E8233
:104CC00089819A819C838B8389859A852B813C81FC
:104CD0004D815E81BA01A9010E94CB242C960FB6AA
:104CE000F894DEBF0FBECDBFCF91DF910895DF9363
:104CF000CF93CDB7DEB72C970FB6F894DEBF0FBEBB
:104D0000CDBF98878F837A8769875C874B8784E0DC
:104D100090E00E94BA6C9A83898389819A81009776
:104D200011F40E949B6E8F819885E981FA819383AB
:104D3000828389859A8562E070E00E949E6CE98199
:104D4000FA8191838083E981FA8180819181009742
:104D500011F40E949B6E1B821C821D821E8289811F
:104D60009A819C838B838B859C852B813C814D8193
:104D70005E81BA01A9010E94CB242C960FB6F8944B
:104D8000DEBF0FBECDBFCF91DF910895DF93CF93EC
:104D9000CDB7DEB72E970FB6F894DEBF0FBECDBFEE
:104DA00098878F837A8769875C874B8784E090E058
:104DB0000E94BA6C9A83898389819A81009711F441
:104DC0000E949B6E8F819885E981FA81938382830B
:104DD0008F819885009729F08F8198859E878D8790
:104DE00004C081E090E09E878D878D859E8562E07E
:104DF00070E00E949E6CE981FA8191838083E98151
:104E0000FA8180819181009711F40E949B6E1B8230
:104E10001C821D821E8289819A819C838B83898555
:104E20009A852B813C814D815E81EB85FC85BA01A1
:104E3000A9019F010E94A34A2E960FB6F894DEBFE7
:104E40000FBECDBFCF91DF910895DF93CF93CDB744
:104E5000DEB72E970FB6F894DEBF0FBECDBF988792
:104E60008F837A8769875C874B873E872D8784E0AD
:104E700090E00E94BA6C9A83898389819A81009715
:104E800011F40E949B6E8F819885E981FA8193834A
:104E9000828389859A8562E070E00E949E6CE98138
:104EA000FA8191838083E981FA81808191810097E1
:104EB00011F40E949B6E1B821C821D821E828981BE
:104EC0009A819C838B838B859C852B813C814D8132
:104ED0005E81ED85FE85BA01A9019F010E94A34A6A
:104EE0002E960FB6F894DEBF0FBECDBFCF91DF91E7
:104EF00008950F931F93DF93CF93CDB7DEB72C9711
:104F00000FB6F894DEBF0FBECDBF98878F837A8728
:104F100069875C874B878F81988529853A85B90198
:104F20000E941D269C838B83EB81FC81848195816B
:104F30009A8389831E821D8221C0E981FA812081A2
:104F400031818D819E81880F991F8901080F191F5A
:104F50008D819E819C01220F331F8B859C85FC01D6
:104F6000E20FF31F808191810E94FD28F801918357
:104F700080838D819E8101969E838D832D813E81CC
:104F80008F81988528173907C0F28B819C812C96D8
:104F90000FB6F894DEBF0FBECDBFCF91DF911F914A
:104FA0000F9108950F931F93DF93CF93CDB7DEB783
:104FB0002E970FB6F894DEBF0FBECDBF98878F83B4
:104FC0007A8769875C874B873E872D878F81988595
:104FD00029853A854B855C85B9010E9477269C839B
:104FE0008B83EB81FC81848195819A8389831E82E6
:104FF0001D8221C0E981FA81208131818D819E81CC
:10500000880F991F8901080F191F8D819E819C01AE
:10501000220F331F8D859E85FC01E20FF31F8081D7
:1050200091810E94FD28F801918380838D819E816A
:1050300001969E838D832D813E818F8198852817CF
:105040003907C0F28B819C812E960FB6F894DEBF93
:105050000FBECDBFCF91DF911F910F9108950F9398
:105060001F93DF93CF93CDB7DEB72E970FB6F8948B
:10507000DEBF0FBECDBF98878F837A8769875C8735
:105080004B873E872D878F81988529853A854D8569
:105090005E85B9010E94C6269C838B83EB81FC81CF
:1050A000848195819A8389831E821D8221C0E98132
:1050B000FA81208131818D819E81880F991F89011C
:1050C000080F191F8D819E819C01220F331F8B8534
:1050D0009C85FC01E20FF31F808191810E94FD28D5
:1050E000F801918380838D819E8101969E838D83BB
:1050F0002D813E818F81988528173907C0F28B81D9
:105100009C812E960FB6F894DEBF0FBECDBFCF9117
:10511000DF911F910F910895DF93CF9300D000D0BE
:10512000CDB7DEB79C838B83EB81FC81808191813D
:105130008830910549F0EB81FC8180819181873035
:10514000910511F00E949B6EEB81FC818481958119
:105150009A838983E981FA81828193810F900F90EC
:105160000F900F90CF91DF910895DF93CF9300D0F0
:1051700000D000D0CDB7DEB79C838B837E836D8358
:10518000EB81FC81808191818830910549F0EB8130
:10519000FC81808191818730910511F00E949B6E86
:1051A000EB81FC81848195819A8389838D819E81A5
:1051B00099234CF0E981FA81228133818D819E818E
:1051C0008217930714F00E949B6EE981FA81208177
:1051D00031818D819E81880F991FF901E80FF91F98
:1051E000808191810E94FD2826960FB6F894DEBF3B
:1051F0000FBECDBFCF91DF9108950F931F93DF9323
:10520000CF93CDB7DEB766970FB6F894DEBF0FBE6B
:10521000CDBF9A8B898B89899A89009719F41E8A48
:105220001D8A22C1E989FA8980819181E989FA89F7
:105230002481358146815781BA01A9010E94CB247E
:10524000988B8F87EF85F889808191819C8B8B8BE0
:10525000EB89FC89E830F105C9F08B899C8989309C
:10526000910538F4EB89FC89E730F10508F4F8C0C2
:1052700074C08B899C898B30910508F4F1C0EB894F
:10528000FC89EB30F10509F4CFC0EAC0EF85F8895D
:10529000848195819C878B8784E090E00E94BA6C22
:1052A0009A87898789859A85009711F40E949B6E59
:1052B000EB85FC8580819181A281B381E985FA85A6
:1052C00080839183A283B383E985FA858281938168
:1052D000880F991F0E94BA6CE985FA8591838083B3
:1052E000E985FA8580819181009711F40E949B6E77
:1052F0001E861D8622C0E985FA85208131818D8533
:105300009E85880F991F8901080F191FEB85FC8561
:10531000208131818D859E85880F991FF901E80FC5
:10532000F91F808191810E94FD28F801918380837B
:105330008D859E8501969E878D87EB85FC852281D4
:1053400033818D859E8582179307ACF2EF85F889AE
:1053500089859A859583848383C0EF85F8898481C4
:1053600095819E838D8384E090E00E94BA6C9C833B
:105370008B838B819C81009711F40E949B6EED8141
:10538000FE8180819181A281B381EB81FC81808348
:105390009183A283B383EB81FC8182819381880F07
:1053A000991F0E94BA6CEB81FC8191838083EB8111
:1053B000FC8180819181009711F40E949B6E188678
:1053C0001F8222C0EB81FC81208131818F819885F1
:1053D000880F991F8901080F191FED81FE81208117
:1053E00031818F819885880F991FF901E80FF91F86
:1053F000808191810E94FD28F801918380838F81B3
:105400009885019698878F83ED81FE812281338173
:105410008F81988582179307ACF2EF85F8898B818D
:105420009C81958384831CC0EF85F8898481958154
:105430009A838983E981FA8182819381E981FA8162
:1054400064817581E981FA8146815781E981FA8118
:10545000208131810E94FB47EF85F8899583848301
:105460008F8598899E8B8D8B8D899E8966960FB6C8
:10547000F894DEBF0FBECDBFCF91DF911F910F918A
:105480000895EF92FF920F931F93DF93CF93CDB7C1
:10549000DEB72E970FB6F894DEBF0FBECDBF99874B
:1054A00088877B876A87888599850E94EB31882366
:1054B000E9F08A859B850E94EB318823B9F08885C5
:1054C00099850E9403337B018C018A859B850E940C
:1054D00003339B01AC011E86C801B7010E94526FC5
:1054E000882309F0DBC081E08E87D8C0E885F98584
:1054F00020813181EA85FB858081918128173907D8
:1055000011F01E86CBC0E885F985808191819D8749
:105510008C878C859D858630910509F442C08C85E9
:105520009D858730910560F48C859D85833091053C
:1055300059F18C859D858430910508F04FC03EC09F
:105540008C859D858930910509F45FC08C859D858A
:105550008A30910568F48C859D858730910509F422
:105560006CC08C859D858830910509F45DC095C01F
:105570008C859D858A30910509F18C859D858B30C0
:10558000910509F46FC089C0E885F9859481EA85A1
:10559000FB8584811E86981709F080C091E09E8764
:1055A0007DC0E885F9859481EA85FB8584811E8626
:1055B000981709F073C081E08E8770C0E885F9857F
:1055C00024813581EA85FB85848195811E86281793
:1055D000390709F063C091E09E8760C0E885F985CE
:1055E00084819581A681B781EA85FB8524813581F7
:1055F000468157811E86BC01CD010E94526F8823CF
:1056000009F04CC081E08E8749C0E885F985248186
:105610003581EA85FB85848195811E8628173907A7
:10562000E9F591E09E873AC0888599852A853B8572
:10563000B9010E945C2B8E8731C0888599852A85A7
:105640003B85B9010E94E3639F838E838E819F8196
:105650000E9491338D838E819F810E94BA2C8D810F
:105660008E871CC0E885F985848195819C838B8316
:10567000EA85FB85848195819A838983EB81FC810E
:1056800020813181E981FA81808191811E862817EC
:10569000390721F491E09E8701C01E868E852E96E3
:1056A0000FB6F894DEBF0FBECDBFCF91DF911F9133
:1056B0000F91FF90EF9008950F931F93DF93CF9377
:1056C000CDB7DEB72C970FB6F894DEBF0FBECDBFB7
:1056D000998788877B876A87E885F98584819581A2
:1056E0009D838C83EA85FB85848195819B838A8356
:1056F000EC81FD8122813381EA81FB81828193816A
:105700002817390711F01C863FC081E089831F826A
:105710001E822FC08981082F10E0EC81FD8120813D
:1057200031818E819F81880F991FF901E80FF91F40
:1057300040815181EA81FB81208131818E819F816D
:10574000880F991FF901E80FF91F20813181CA01E3
:10575000B9010E94412A882F90E080239123198269
:10576000009711F081E089838E819F8101969F834C
:105770008E83EC81FD81228133818E819F8182170E
:10578000930744F289818C878C852C960FB6F89408
:10579000DEBF0FBECDBFCF91DF911F910F91089556
:1057A000DF93CF93CDB7DEB72E970FB6F894DEBF59
:1057B0000FBECDBF9C878B878B859C85009709F496
:1057C000D0C0EB85FC85808191819E878D878D85FA
:1057D0009E8588309105C9F08D859E85893091051B
:1057E00038F48D859E858730910508F4B6C051C088
:1057F0008D859E858B30910508F4AFC08D859E8583
:105800008B30910509F489C0A8C0EB85FC858481A3
:10581000958198878F831A86198623C0EF81F88532
:105820002081318189859A85880F991FF901E80FB8
:10583000F91F80819181009779F0EF81F8852081AF
:10584000318189859A85880F991FF901E80FF91F21
:10585000808191810E94D02B89859A8501969A87B3
:105860008987EF81F8852281338189859A8582171E
:105870009307A4F2EF81F885808191810E94676D82
:105880008F8198850E94676DEB85FC851582148257
:1058900064C0EB85FC85848195819C838B831E820B
:1058A0001D8223C0EB81FC81208131818D819E810D
:1058B000880F991FF901E80FF91F808191810097E6
:1058C00079F0EB81FC81208131818D819E81880F6F
:1058D000991FF901E80FF91F808191810E94D02B57
:1058E0008D819E8101969E838D83EB81FC81228137
:1058F00033818D819E8182179307A4F2EB81FC8115
:10590000808191810E94676D8B819C810E94676D6F
:10591000EB85FC851582148220C0EB85FC85848193
:1059200095819A838983E981FA8126813781E9818A
:10593000FA8180819181F9010995E981FA811182C9
:105940001082E981FA811782168289819A810E94E8
:10595000676DEB85FC85158214828B859C850E9482
:10596000676D2E960FB6F894DEBF0FBECDBFCF91F8
:10597000DF910895DF93CF93CDB7DEB760970FB671
:10598000F894DEBF0FBECDBF9E878D878D859E8527
:10599000009709F4E2C0ED85FE8580819181988BA6
:1059A0008F878F85988988309105C9F08F85988970
:1059B0008930910538F48F8598898730910508F4EE
:1059C000B6C051C08F8598898B30910508F4AFC05F
:1059D0008F8598898B30910509F489C0A8C0ED8521
:1059E000FE858481958198878F831A86198623C0C6
:1059F000EF81F8852081318189859A85880F991FEB
:105A0000F901E80FF91F80819181009779F0EF810A
:105A1000F8852081318189859A85880F991FF90140
:105A2000E80FF91F808191810E94BA2C89859A859F
:105A300001969A878987EF81F8852281338189854C
:105A40009A8582179307A4F2EF81F885808191816E
:105A50000E94676D8F8198850E94676DED85FE8538
:105A60001582148264C0ED85FE85848195819C83B6
:105A70008B831E821D8223C0EB81FC8120813181BA
:105A80008D819E81880F991FF901E80FF91F808190
:105A90009181009779F0EB81FC81208131818D81AA
:105AA0009E81880F991FF901E80FF91F808191816C
:105AB0000E94BA2C8D819E8101969E838D83EB81FD
:105AC000FC81228133818D819E8182179307A4F20C
:105AD000EB81FC81808191810E94676D8B819C812B
